:020000040800F2
:100000000000022081200008D1200008D120000833
:10001000D1200008D1200008D120000800000000F5
:10002000000000000000000000000000A11E000809
:10003000D120000800000000A31E0008A51E000833
:10004000D1200008D1200008D1200008D1200008CC
:10005000D1200008D1200008D1200008D1200008BC
:10006000D1200008D1200008D1200008D1200008AC
:10007000D1200008D1200008D1200008D12000089C
:10008000D1200008D1200008D1200008D12000088C
:10009000D1200008D1200008D1200008D12000087C
:1000A000D1200008D1200008D1200008D12000086C
:1000B000D1200008D1200008D1200008D12000085C
:1000C000D1200008D1200008D1200008D12000084C
:1000D000D1200008D1200008D1200008D12000083C
:1000E000B31E0008D1200008D1200008D12000084C
:1000F000D1200008D1200008D1200008D12000081C
:10010000D1200008D1200008D1200008D12000080B
:10011000D1200008D1200008D1200008D1200008FB
:10012000D1200008D1200008D1200008D1200008EB
:10013000D1200008D1200008D1200008D1200008DB
:10014000D1200008D1200008D1200008D1200008CB
:10015000D1200008D1200008D1200008D1200008BB
:10016000D1200008D1200008D1200008D1200008AB
:10017000D1200008D1200008D12000080000000094
:08018000D1200008D120000885
:1001880010B5054C237833B9044B13B10448AFF3C9
:1001980000800123237010BD04000020000000002F
:1001A8001C21000808B5034B1BB103490348AFF3F2
:1001B800008008BD00000000080000201C21000885
:1001C8007BB972B90029BEBF00204FF0004106E09C
:1001D80008BF00281CBF6FF000414FF0FF3000F04F
:1001E800C5B9ADF1080C6DE904CE002909DB002B77
:1001F8001ADB00F04DF8DDF804E0DDE9022304B075
:100208007047404261EB4101002B1BDB00F040F8D6
:10021800DDF804E0DDE9022304B0404261EB41016E
:10022800524263EB43037047524263EB430300F0CF
:100238002FF8DDF804E0DDE9022304B0404261EB69
:1002480041017047524263EB430300F021F8DDF8A7
:1002580004E0DDE9022304B0524263EB4303704734
:1002680053B94AB9002908BF00281CBF4FF0FF3115
:100278004FF0FF3000F07AB9ADF1080C6DE904CE0B
:1002880000F006F8DDF804E0DDE9022304B0704769
:100298002DE9F0478C460D460446089E002B51D1A7
:1002A8008A4217466DD9B2FA82FEBEF1000F0BD012
:1002B800CEF1200C01FA0EF520FA0CFC02FA0EF72A
:1002C8004CEA050C00FA0EF44FEA174A250CBCFB61
:1002D800FAF81FFA87F90AFB18CC45EA0C4508FB1F
:1002E80009F3AB420AD9ED1908F1FF3280F02381F6
:1002F800AB4240F22081A8F102083D44ED1AA4B2B5
:10030800B5FBFAF00AFB105544EA054400FB09F96D
:10031800A14509D9E41900F1FF3380F00A81A1450C
:1003280040F2078102383C44A4EB090440EA084043
:100338000021002E61D024FA0EF40023346073608B
:10034800BDE8F0878B4207D9002E54D0002186E8FB
:1003580021000846BDE8F087B3FA83F1002940F090
:100368008E80AB4202D3824200F2FA80841A65EB97
:1003780003050120AC46002E3FD086E81010BDE8EA
:10038800F08712B90127B7FBF2F7B7FA87FEBEF17B
:10039800000F34D1EB1B3A0C1FFA87FC0121B3FB89
:1003A800F2F8250C02FB183345EA03450CFB08F369
:1003B800AB4207D9ED1908F1FF3002D2AB4200F287
:1003C800D1808046ED1AA3B2B5FBF2F002FB1055BE
:1003D80043EA05440CFB00FCA44507D9E41900F1E5
:1003E800FF3302D2A44500F2B8801846A4EB0C04EF
:1003F80040EA08409DE731463046BDE8F087CEF137
:10040800200405FA0EF307FA0EF720FA04F83A0C5E
:1004180025FA04F448EA0308B4FBF2F14FEA184558
:1004280002FB11441FFA87FC45EA044501FB0CF363
:10043800AB4200FA0EF409D9ED1901F1FF3080F052
:100448008A80AB4240F2878002393D44EB1A1FFA9A
:1004580088F5B3FBF2F002FB103345EA034500FBD5
:100468000CF3AB4207D9ED1900F1FF386FD2AB425C
:100478006DD902383D44EB1A40EA01418FE7C1F1DA
:10048800200722FA07F88B4005FA01F448EA03032B
:1004980020FA07FE4FEA134CFD404EEA040EB5FB66
:1004A800FCF94FEA1E440CFB19551FFA83F844EA7D
:1004B800054509FB08F4AC4202FA01F200FA01FA18
:1004C80008D9ED1809F1FF3043D2AC4241D9A9F15E
:1004D80002091D442D1B1FFA8EFEB5FBFCF00CFB18
:1004E80010554EEA054400FB08F8A04507D9E41862
:1004F80000F1FF3529D2A04527D902381C4440EA2B
:100508000940A4EB0804A0FB02894C45C6464D46A9
:1005180015D312D056B1BAEB0E0364EB050404FAF6
:1005280007F7CB401F43CC40376074600021BDE81B
:10053800F0871846F8E69046E0E6C245EAD2B8EBFE
:10054800020E69EB03050138E4E72846D7E7404681
:1005580091E78146BEE7014678E702383C4445E723
:10056800084608E7A8F102083D442BE7704700BF9A
:1005780010B5084B044618684FF47A73B0FBF3F0D3
:1005880000F084F8002221464FF0FF3000F03EF8DA
:10059800002010BD0000002008B50B4B1A6842F47B
:1005A80000721A601A6842F480621A601A6842F48B
:1005B80080721A60032000F017F80020FFF7D8FFB8
:1005C80001F03AFC002008BD003C0240024A1368D2
:1005D80001331360704700BF20000020014B1868EA
:1005E800704700BF20000020074AD36823F4E06367
:1005F8001B041B0C43F0BF63000243F4003300F4F8
:10060800E0600343D360704700ED00E0174B30B55E
:10061800DC68C4F30224C4F10703251D042B28BF9A
:100628000423062D4FF0010505FA03F303F1FF3308
:100638008CBF033C00241940A14005FA04F4013C96
:100648002240002842EA01024FEA0212AFBF00F13D
:10065800604000F00F00064BD2B2A5BF00F5614024
:10066800D2B21A5480F8002330BD00BF00ED00E07C
:1006780014ED00E04209012300F01F0003FA00F026
:10068800014B43F82200704700E100E00138B0F167
:10069800807F0AD2064B074A5860F02182F823105F
:1006A8000020072298601A6070470120704700BF39
:1006B80010E000E000ED00E0044B1A6804280CBFCD
:1006C80042F0040222F004021A60704710E000E0D1
:1006D800704708B5FFF7FCFF08BD00002DE9F04F93
:1006E80085B00B68DFF8AC81684ADFF8AC910193FC
:1006F80000234FF0010E019C0EFA03FE0EEA0406D9
:10070800B64540F0AE804C6824F01007022F16D191
:100718004FEAD30A00EB8A0A03F0070BDAF82050F5
:100728004FEA8B0B4FF00F0C0CFA0BFC25EA0C0C64
:100738000D6905FA0BF545EA0C05CAF820504FEA91
:10074800430A0325D0F800B005FA0AF5ED4304F092
:10075800030C0BEA050B0CFA0AFC013F4CEA0B0CE4
:10076800012FC0F800C011D8876807EA050BCF68C9
:1007780007FA0AFC4CEA0B078760476827EA0E0E5F
:10078800C4F300179F4047EA0E074760C7683D401B
:100798008F6807FA0AF73D43C560E50061D54FF059
:1007A800000BCDF80CB0D8F84470394D47F48047A9
:1007B800C8F84470D8F8447007F480470397039F3B
:1007C80023F0030707F1804707F59C3703F0030C74
:1007D800D7F808A04FEA8C0C4FF00F0E0EFA0CFE5B
:1007E800A8422AEA0E0E43D005F58065A84241D0FA
:1007F80005F58065A8423FD005F58065A8423DD043
:1008080005F58065A8423BD048453BD005F5006515
:10081800A84239D005F58065A84214BF08250725E8
:1008280005FA0CF545EA0E05BD601568F74314F4A2
:10083800803F0CBF3D4035431560556814F4003FB8
:100848000CBF3D4035435560956814F4801F0CBFBC
:100858003D4035439560D568A40254BF3D403543BB
:10086800D5600133102B7FF444AF05B0BDE8F08F9D
:100878005D46D5E70125D3E70225D1E70325CFE774
:100888000425CDE70525CBE70625C9E7003C01404F
:100898000000024000380240001402400AB18161A1
:1008A80070470904FBE7704708B5044B59690142D2
:1008B80002D05861FFF7F7FF08BD00BF003C0140B8
:1008C800F7B5044610B9012003B0F0BD0368D80796
:1008D8003BD42368990700F1848023681E0700F140
:1008E800C68023685D072AD500230193AA4BAB4D28
:1008F8001A6C42F080521A641B6C03F08053019307
:10090800019B2B6843F480732B60FFF767FE064654
:100918002B68DA0540F1CD80A3689F4D012B40F08C
:10092800CF802B6F43F001032B67FFF757FE9A4DDB
:10093800064641F288372B6F9B0740F1E280A26997
:10094800002A40F0E5800020BEE7934B9A6802F049
:100958000C02042A07D09A6802F00C02082A0AD16D
:100968005B685A0207D58C4B1B689B03B1D563683B
:10097800002BAED1A7E76368874DB3F5803F11D14F
:100988002B6843F480332B60FFF728FE824D064620
:100998002B689F039DD4FFF721FE801B6428F7D99D
:1009A800032091E7B3F5A02F04D12B6843F48023EB
:1009B8002B60E5E72A6822F480322A602A6822F44C
:1009C80080222A60002BDFD1FFF708FE06462B683D
:1009D80098037FF57EAFFFF701FE801B6428F6D9E8
:1009E800DEE76D4B9A6812F00C0F07D09A6802F098
:1009F8000C02082A12D15B6859020FD4664B1A6898
:100A0800920703D5E268012A7FF45DAF1A6821696D
:100A180022F0F80242EAC1021A605EE7E268604B1F
:100A2800B2B101221A60FFF7D9FD5B4D06462B686B
:100A38009B0707D52B68226923F0F80343EAC20312
:100A48002B604AE7FFF7CAFD801B0228EFD9A7E70A
:100A58001A60FFF7C3FD504D06462B689F077FF5C8
:100A68003CAFFFF7BBFD801B0228F6D998E7626907
:100A78004C4B7AB101221A60FFF7B0FD464D06468D
:100A88006B6F98073FF52DAFFFF7A8FD801B022875
:100A9800F6D985E71A60FFF7A1FD3F4D06466B6F53
:100AA80099077FF51EAFFFF799FD801B0228F6D93D
:100AB80076E7FFF793FD801B02287FF629AF6FE7E3
:100AC800052B04D12B6F43F004032B6729E72A6F0A
:100AD80022F001022A672A6F22F004022A67002BFB
:100AE8007FF423AFFFF77AFD41F2883706462B6F74
:100AF80098077FF524AFFFF771FD801BB842F6D940
:100B08004EE7FFF76BFD801BB8427FF614AF47E74F
:100B1800214DAB6803F00C03082B3FF4D4AE224EF2
:100B28000023022A33602AD1FFF758FD07462B68B5
:100B380099011ED4226AE3691343626A43EA821365
:100B4800E26A43EA0263A26A134C5208013A43EA92
:100B580002436B6001233360FFF740FD05462368BD
:100B68009A013FF5F0AEFFF739FD401B0228F6D990
:100B780016E7FFF733FDC01B0228D8D910E7FFF7A7
:100B88002DFD04462B689B017FF5DDAEFFF726FDA2
:100B9800001B0228F6D903E7003802400070004025
:100BA80000004742800E474260004742134908B59B
:100BB8008B6803F00C03042B03D0082B03D01048D8
:100BC80008BD104808BD4A684B68496813F480039B
:100BD80014BF0C480A48C1F3881118BF002302F05B
:100BE8003F02A1FB0001FFF73BFB044B5B68C3F32B
:100BF800014301335B00B0FBF3F008BD003802404D
:100C08000024F40040787D012DE9F0410D460446AA
:100C180010B90120BDE8F081444B1A6802F00F02B8
:100C28008A4228D321688F072DD4C80740D43F4B68
:100C38001A6802F00F02954266D3226851076CD4F5
:100C4800130707D53A4A2169936823F4604343EAB6
:100C5800C1039360FFF7AAFF354B364A9B68C3F37D
:100C68000313D35CD840344B18600020FFF780FC96
:100C78000020BDE8F081CAB21A701B6803F00F03A8
:100C88009942C6D1CEE72A4B11F0040F1EBF9A68CD
:100C980042F4E0529A600E0742BF9A6842F46042FA
:100CA8009A609A68A06822F0F00202439A60BCE752
:100CB80062681F4B012A1DD11B6813F4003FA8D09E
:100CC8001B4EB36823F003031343B360FFF786FC9E
:100CD80041F288380746B368626803F00C03B3EB47
:100CE800820FA4D0FFF77AFCC01B4045F3D903203C
:100CF800BDE8F081911E01291B6802D813F0007F1E
:100D0800DDE713F0020FDAE7EAB21A701B6803F0A6
:100D18000F039D427FF47DAF8FE70549E0688B683C
:100D280023F4E05303438B608AE700BF003C024092
:100D3800003802404121000800000020014B1868DB
:100D4800704700BF000000202DE9F041069E0446D0
:100D5800884617461D462268936838EA03030CBF85
:100D6800012300239F4202D10020BDE8F0816B1CC3
:100D7800F2D055BB23685A6822F0E0025A606268D4
:100D8800B2F5827F0AD1A268B2F5004F02D0B2F55F
:100D9800806F03D11A6822F040021A60A26AB2F585
:100DA800005F09D11A6822F400521204120C1A606A
:100DB8001A6842F400521A60012384F85130002363
:100DC80084F850300320BDE8F081FFF707FC801B52
:100DD8008542C0D8CEE713B50B4600928021002289
:100DE8000446FFF7B1FF20B1636D43F0200363654C
:100DF800032002B010BD10B50446002836D00023E9
:100E0800836290F8513003F0FF021BB980F850203C
:100E180000F0EAFF2168A068A269022384F8513033
:100E28000B6823F040030B6063680343E0680343E7
:100E38002069034360690343E0690343206A03436D
:100E4800A06A034302F4007003430B60120C636A48
:100E580002F004021A434A60CB6923F40063CB61B1
:100E680000200123606584F8513010BD012010BDB9
:100E78002DE9FF411E4690F85030012B04460D46DF
:100E8800904600F09C80012380F85030FFF7A6FBC5
:100E9800074694F85100C0B2012840F08E80002D1A
:100EA8004ED0B8F1000F4BD0032384F85130002303
:100EB8006365A363A4F83680A387E3876364236428
:100EC800A3682563B3F5004F2368A4F8348002BFF4
:100ED8001A6842F480421A601A6852065EBF1A689D
:100EE80042F040021A60E268B2F5006F626838D1D9
:100EF8001AB1E28E92B2012A06D135F8022BDA60D5
:100F0800E38E013B9BB2E386E38E9BB293B90097D5
:100F18003346012202212046FFF716FF78B93A46E8
:100F280031462046FFF757FF002838D02023636555
:100F3800012005E023689A689007DED44EB90320A3
:100F4800012384F85130002384F8503004B0BDE800
:100F5800F081711CD8D0FFF741FBC01B8642D3D863
:100F6800EDE71AB1E28E92B2012A06D115F8012BEB
:100F78001A73E38E013B9BB2E386E38E9BB2002B90
:100F8800C5D023689A689207F0D4002ED7D0731C76
:100F9800F3D0FFF723FBC01B8642EED8CFE7A36848
:100FA80033B903932368DA6803929B680393039B1E
:100FB800606D003018BF0120C2E70220C0E70220A0
:100FC800C4E72DE9F043994690F8503085B0012BDD
:100FD80004460D4616460C9F00F0ED80012380F86C
:100FE8005030FFF7FBFA94F851306168DBB2012BFF
:100FF80080460AD0B1F5827F40F0DB80A268002AE3
:1010080040F0D780042B40F0D480002D4ED0002E25
:101018004CD0B9F1000F49D094F85130A663012B98
:1010280004BF052384F85130002363652364636497
:101038002368A4F83E90A4F836901A68A4F83C9067
:10104800500658BF1A68256358BF42F04002A4F8FA
:10105800349058BF1A60E268B2F5006F5DD119B1DB
:10106800E28E92B2012A06D135F8022BDA60E38EBD
:10107800013B9BB2E3864FF00109E38E9BB2BBB9FB
:10108800E38F9BB2A3B9CDF800803B460122022131
:101098002046FFF759FE002835D1424639462046FA
:1010A800FFF799FE002879D02023636501202BE003
:1010B800B9F1000F0FD0E38E9BB263B123689A6831
:1010C800910708D535F8022BDA60E38E013B9BB215
:1010D800E3864FF00009E38F9BB263B123689A68F7
:1010E800D20708D5DB6826F8023BE38F013B9BB2A9
:1010F800E3874FF00109781CBFD0FFF76FFAA0EB28
:1011080008008742B9D80320012384F8513000230E
:1011180084F8503005B0BDE8F08319B1E28E92B280
:10112800012A06D115F8012B1A73E38E013B9BB2F5
:10113800E3864FF00109E38E9BB21BB9E38F9BB2A4
:10114800002BA0D0B9F1000F0FD0E38E9BB263B192
:1011580023689A68910708D52A781A73E38E013BA9
:101168009BB2E38601354FF00009E38F9BB263B170
:1011780023689A68D20708D5DB683370E38F013B90
:101188009BB2E38701364FF001097B1CD3D0FFF7F0
:1011980025FAA0EB08008742CDD8B4E7A368002B56
:1011A800B2D123680390DA6803929B680393039B88
:1011B800AAE70220A8E70220ACE72DE9F3411E4682
:1011C8004368B3F5827F04460D4690460CD1836888
:1011D80053B9042380F85130134600960A46FFF7A6
:1011E800F0FE02B0BDE8F08194F85030012B00F019
:1011F8008180012384F85030FFF7F0F9074694F80E
:101208005100C0B2012873D1002D58D0B8F1000F99
:1012180055D0042384F85130002363652363A4F870
:101228003E80A386E38623646364A368A563B3F55D
:10123800004F2368A4F83C8002BF1A6822F4804259
:101248001A601A6852065EBF1A6842F040021A60B5
:10125800E368CBB1E38F9BB2D3B123689A68D20716
:101268003CD5DB6825F8023BE38F013B9BB2E38763
:10127800F0E723689A68D0071FD51B7B05F8013B68
:10128800E38F013B9BB2E387E38F9BB2002BF0D146
:101298006368B3F5827F0BD1A368B3F5004F02D022
:1012A800B3F5806F04D12268136823F040031360FC
:1012B800606D003018BF012001E03EB90320012312
:1012C80084F85130002384F850308AE7711CDBD051
:1012D800FFF784F9C01B8642D6D8EFE7002EEDD081
:1012E800731CB7D0FFF77AF9C01B8642B2D8E5E77E
:1012F8000220E4E7022074E790F8510070470000EC
:10130800036A23F001030362036A426870B58469C3
:101318000D6824F0730425438C6823F002032343EB
:101328000C4CA04209D004F58064A04205D042606C
:101338004A6885614263036270BDCC688E6923F098
:10134800080323434C6922F44072344323F0040316
:101358002243ECE700000140036A23F48073036230
:10136800036A426870B5C4690D6824F073042543A4
:101378008C6823F4007343EA04230E4CA04209D07E
:1013880004F58064A04205D042604A68C561C26322
:10139800036270BDCC688E6923F4006343EA0423BA
:1013A8004C6922F44052344323F4806342EA041225
:1013B800EAE700BF00000140036A23F48053036298
:1013C80030B5046A4368C2690D6822F4E64242EA0D
:1013D80005228D6824F4005444EA0534094DA842D6
:1013E80009D005F58065A84205D043604B68C26105
:1013F8000364046230BD4D6923F4804343EA8513D6
:10140800F3E700BF000001400268022380F839308A
:10141800136843F001031360012380F8393000207A
:10142800704700002E4A0368904212D0B0F1804FF6
:101438000FD0A2F57C4290420BD002F58062904218
:1014480007D002F58062904203D002F578429042BC
:101458001DD14A6823F070031343214A904204D1F6
:10146800CA6823F44073134328E0B0F1804FF7D0E3
:101478001C4A9042F4D002F580629042F0D002F506
:1014880080629042ECD002F578429042E8D0164A49
:101498009042E5D002F580629042E1D002F5806288
:1014A8009042DDD0A2F598329042D9D002F5806200
:1014B8009042D5D002F580629042D1D003608B680B
:1014C800C3620B688362064B984206D003F58063BB
:1014D800984202D00123436170470B690363F9E71F
:1014E80000000140000400400040014010B50446DF
:1014F800A0B190F8393003F0FF021BB980F838200A
:1015080000F0FEFC022384F839302068211DFFF723
:1015180089FF012384F83930002010BD012010BD57
:10152800036A23F010030362036A426870B5846992
:101538000D6824F4E64444EA05258C6823F020036A
:1015480043EA04130D4CA04209D004F58064A0427C
:1015580005D042604A6885618263036270BDCC68C9
:101568008E6923F0800343EA04134C6922F4406235
:10157800344323F0400342EA8402EAE700000140D2
:1015880038B590F83830012B04464FF0020025D0CA
:10159800012384F8383084F839000C2A18D8DFE899
:1015A80002F0071717171E1717172F1717174000DE
:1015B8002068FFF7A5FE236809699A6942F00802C6
:1015C8009A619A6922F004029A619A690A439A61B7
:1015D8000123002084F8393084F8380038BD2068A9
:1015E800FFF79EFF236809699A6942F400629A61CD
:1015F8009A6922F480629A619A6942EA0122E6E7CE
:101608002068FFF7A9FE23680969DA6942F0080231
:10161800DA61DA6922F00402DA61DA690A43DA6126
:10162800D6E72068FFF7C8FE23680969DA6942F43B
:101638000062DA61DA6922F48062DA61DA6942EA20
:101648000122ECE7036A10B501248C4023EA040365
:101658000362036A8A401A43026210BD10B5044649
:1016680001220068FFF7EEFF2368084A934203D07F
:1016780002F58062934203D15A6C42F400425A64E4
:101688001A6842F001021A60002010BD00000140F3
:1016980090F83830012B10B54FF0020318D080F8BD
:1016A800393003680C685A68496822F070025A6039
:1016B8005A6822435A609A6822F080029A609A68AF
:1016C8000A439A60012380F83930002380F83830C3
:1016D800184610BD90F83830012B1FD0CB688A68A7
:1016E80023F4407313434A6823F4806313430A685E
:1016F80023F4006313430A6923F4805313434A69AC
:1017080023F4005313438A6923F4404313430268C4
:101718005364002380F83830184670470220704719
:1017280002290C4B10D1020AD870000C00F00301FA
:10173800C0009A7000F0E0020A43083222F0140256
:101748005A70000A18707047002240019A70DA70C7
:101758005870F6E72C00002010B588B000248DF8EA
:1017680018408DF819408DF81A408DF81B408DF8F7
:101778001C408DF81D408DF81E408DF81F408DF8D7
:1017880000408DF801408DF802408DF803408DF837
:1017980004408DF805408DF806408DF807408DF817
:1017A80008408DF809408DF80A408DF80B408DF8F7
:1017B8000C408DF80D408DF80E408DF80F408DF8D7
:1017C80010408DF811408DF812408DF813408DF8B7
:1017D80014408DF815408DF816408DF8174000F02C
:1017E800AFF810B9002008B010BD00F0FBF80028D1
:1017F800F8D006AA2321202000F01EF907AA2721E5
:10180800242000F019F96A460321204600F014F953
:1018180001AA0721042000F00FF902AA0B210820D1
:1018280000F00AF903AA1321102000F005F904AA10
:101838001721142000F000F905AA1B21182000F038
:10184800FBF80421602000F0AFF80121702000F0BF
:10185800ABF803212B2000F0A7F821462A2000F03E
:10186800A3F8E021292000F09FF88221282000F029
:101878009BF800F0CCF8003018BF0120B3E7000057
:1018880070B51E4E0025044635707570B570F5703C
:1018980000F03AF91A4B410718700FD421786068A4
:1018A800FFF73EFF402004F10903227A314600F099
:1018B800E9F8812000F012F9012070BDC2060CD4AD
:1018C80021786068FFF72CFF422004F10903227A8F
:1018D800314600F0D7F88220ECE743060CD4217893
:1018E8006068FFF71DFF442004F10903227A31469E
:1018F80000F0C8F88420DDE7284670BD2C000020E1
:101908002800002007B502A90A2301F8010D0122C9
:101918000248FFF7ADFA03B05DF804FB5C00002055
:1019280007B50A2301220DF107010448FFF745FC1A
:101938009DF8070003B05DF804FB00BF5C000020C1
:1019480038B501224FF480710748084DFEF7A6FF0D
:101958000A242846FFF7D0FC012804D0013C14F0E3
:10196800FF04F6D1204638BD001002405C0000207C
:1019780038B50C4C00224FF4807105462046FEF71E
:101988008DFF0320FFF7BEFF2846FFF7BBFFFFF7D9
:10199800C7FF012205464FF480712046FEF77EFFFF
:1019A800284638BD0010024070B50D4C002206468E
:1019B8000D4620464FF48071FEF770FF0220FFF7B6
:1019C800A1FF3046FFF79EFF2846FFF79BFF204602
:1019D80001224FF48071BDE87040FEF75FBF00BF81
:1019E8000010024010B580210F20FFF7DDFF0A2408
:1019F8000E20FFF7BDFF00F0E000802805D0013C75
:101A080014F0FF04F4D1204610BD012010BD10B51C
:101A180000210F20FFF7C8FF0A240E20FFF7A8FFB8
:101A280010F0E00F05D0013C14F0FF04F5D120467A
:101A380010BD012010BD0000F8B5104D06460C463B
:101A480017464FF4807100222846FEF727FF022030
:101A5800FFF758FF3046FFF755FF621C921B3946C7
:101A68000A23D2B20648FFF703FA284601224FF4A8
:101A78008071BDE8F840FEF711BF00BF00100240BA
:101A88005C0000202DE9F041124C164605468846B8
:101A980000224FF4807120461F46FEF7FFFE2846BD
:101AA8000D4DFFF72FFF41460A2304222846FFF772
:101AB800DFF93046FFF726FF3246394628460A2323
:101AC800FFF7D6F9204601224FF48071BDE8F041B6
:101AD800FEF7E4BE001002405C00002038B5094C57
:101AE800054600224FF480712046FEF7D7FE2846AF
:101AF800FFF708FF204601224FF48071BDE8384007
:101B0800FEF7CCBE0010024038B50A4C00224FF454
:101B180080712046FEF7C2FEA020FFF7F3FEFFF714
:101B2800FFFE012205464FF480712046FEF7B6FEFF
:101B3800284638BD00100240F0B58BB000243C4B5D
:101B480000941A6B3B4E3C4D42F080021A631A6BAC
:101B580002F080020092009A01941A6B42F001028E
:101B68001A631A6B02F001020192019A02941A6B2D
:101B780042F010021A631A6B02F010020292029AE3
:101B880003941A6B42F008021A631A6B02F00802F7
:101B98000392039A04941A6B42F004021A631B6BB3
:101BA80003F004030493224630460821049BFEF701
:101BB80075FE284601224FF48071FEF76FFE22461B
:101BC80028464FF48041FEF769FE1127082305A92E
:101BD800304605930126069707940894FEF77EFD84
:101BE8004FF4807305A9284605930696079408962E
:101BF800FEF774FD4FF48063059305A90F4B069318
:101C080028460794FEF76AFD4FF4804305A9284645
:101C18000593069707940896FEF760FD224621462D
:101C28002820FEF7F3FC2820FEF724FD0BB0F0BDBA
:101C3800003802400000024000100240000021105D
:101C480030B595B0284B002101911A6C42F08052B2
:101C58001A641B6C03F080530193019B234B029180
:101C68001A6842F480421A601B6803F480430293A6
:101C7800029B012308934FF4803309934FF48003A8
:101C88000F9319230224109304254FF4A87308A86E
:101C98000E94119312941395FEF712FE00B1FEE70D
:101CA8000F2303934FF4A0530590069305214FF497
:101CB800805303A804940793FEF7A6FF044600B1D7
:101CC800FEE7FFF73BF84FF47A73B0FBF3F0FEF74B
:101CD800DDFC2846FEF7F0FC224621464FF0FF3097
:101CE800FEF794FC15B030BD00380240007000408B
:101CF80070B5FEF751FCFFF7A3FFFFF71DFF00F0DB
:101D08004DF800F057F9FFF727FD4FF4FA4000F0BF
:101D18001BF80A4C4FF001060A25082323720748CE
:101D28002670FF2365606372A372E3722373637383
:101D3800A373E3732374FFF7A3FDEEE730000020DD
:101D4800FEE700000000000008B5C0B141F2C26221
:101D58004243D3170FA1D1E90001FEF731FA4FF63C
:101D6800E85380B2984228BF18463728084B38BF36
:101D78003720D8624008586381221A6008BD044B96
:101D880042F21072DA625A63F6E700BFAFF30080DE
:101D9800000800400049D9710200000008B50F484A
:101DA8000F4B4FF4827E4FF4007280E80840002306
:101DB8008360C360036143618261036210224362EE
:101DC80083620A23C261C362FFF715F828B145216F
:101DD8000448BDE80840FFF7B3BF08BD5C00002019
:101DE800003C0040342100087FB50268104B9A423D
:101DF8001AD1002103F5FE3300911A6C0D4842F404
:101E080000421A641B6C039103F400430093009B87
:101E18004FF4E0530193022302930323049301A98F
:101E280006230593FEF75AFC07B05DF804FB00BFD4
:101E3800003C00400008024008B50320FEF7D4FB30
:101E4800002211466FF00B00FEF7E0FB002211465E
:101E58006FF00A00FEF7DAFB002211466FF0090066
:101E6800FEF7D4FB002211466FF00400FEF7CEFB0C
:101E7800002211466FF00300FEF7C8FB002211464E
:101E88006FF00100FEF7C2FB002211464FF0FF3051
:101E9800BDE80840FEF7BABB7047704708B5FEF7C3
:101EA80095FBBDE80840FEF714BC4FF48060FEF7D0
:101EB800FBBC00000F49D1F8883043F47003C1F827
:101EC80088300D4B1A68002042F001021A609860B1
:101ED8001A6822F0847222F480321A60074A5A6023
:101EE8001A6822F480221A60D8604FF000638B6071
:101EF800704700BF00ED00E00038024010300024B9
:101F08000368114A934282B00DD1002300930F4B0E
:101F18005A6C42F001025A645B6C03F001030093AF
:101F2800009B02B070470A4A9342FAD100230193FA
:101F3800064B1A6C42F004021A641B6C03F004038B
:101F48000193019BEDE700BF00000140003802400B
:101F5800000800407FB50368124A934211D14FF43C
:101F68000073019312230293002303930323049322
:101F78000D480123059301A9FEF7B0FB07B05DF8F2
:101F880004FB0A4A9342F9D14FF480530193122378
:101F9800029300230393032304930223059301A9C7
:101FA8000348E9E700000140001002400008004033
:101FB800000C024030B52C4C2C4A002591B0072368
:101FC800204684E82C00E5602561FFF78FFA18B1F8
:101FD80044212748FFF7B4FE694623480095019538
:101FE800FFF756FB18B14B212148FFF7A9FE2168DE
:101FF800204A1D486023914202934FF000024FF09F
:10200800000302A902BF059307930893039304935F
:102018000693FFF7B5FA18B15C211548FFF790FE53
:102028002268144B9A4212D100234FF4005209A996
:102038000D4809930A930B930C930D930E920F93EB
:10204800FFF748FB18B16A210948FFF779FE0648EF
:10205800FFF780FF0448FFF7D7F900210248FFF790
:10206800FDFA11B030BD00BFB400002000080040E8
:102078005121000800000140DFF834D0002103E0BE
:102088000C4B5B58435004310B480C4B42189A4296
:10209800F6D30B4A02E0002342F8043B094B9A426C
:1020A800F9D3FFF707FF00F011F8FFF721FE70479B
:1020B8000000022070210008000000200400002019
:1020C80004000020F0000020FEE7000070B50D4E6F
:1020D8000D4CA41BA4100025A54209D10B4E0C4C95
:1020E80000F018F8A41BA4100025A54205D170BD66
:1020F80056F8253098470135EEE756F825309847C9
:102108000135F2E768210008682100086821000805
:102118006C210008F8B500BFF8BC08BC9E467047A3
:0C212800F8B500BFF8BC08BC9E4670472C
:102134002E2E5C5372635C7370692E630000000082
:10214400000000000001020304060708092E2E5CAB
:0C2154005372635C74696D2E6300000020
:0821600038E1FF7F01000000DF
:04216800AD010008BD
:04216C0089010008DD
:042170000024F40053
:04000005080020814E
:00000001FF
