:020000040800F2
:1000000000000220F51D0008451E0008451E0008DE
:10001000451E0008451E0008451E0008000000009F
:100020000000000000000000000000002114000893
:10003000451E000800000000511400085D1D000866
:10004000451E0008451E0008451E0008451E000804
:10005000451E0008451E0008451E0008451E0008F4
:10006000451E0008451E0008451E0008451E0008E4
:10007000451E0008451E0008451E0008451E0008D4
:10008000451E0008451E0008451E0008451E0008C4
:10009000451E0008451E0008451E0008451E0008B4
:1000A000451E0008451E0008451E0008451E0008A4
:1000B000611D0008451E0008451E0008451E000879
:1000C000451E0008451E0008451E0008451E000884
:1000D000451E0008451E0008451E0008451E000874
:1000E0006D1D0008451E0008451E0008451E00083D
:1000F000451E0008451E0008451E0008451E000854
:10010000451E0008451E0008451E0008451E000843
:10011000451E0008451E0008451E0008451E000833
:10012000451E0008451E0008451E0008451E000823
:10013000451E0008451E0008451E0008451E000813
:10014000451E0008451E0008451E0008451E000803
:10015000451E0008451E0008451E0008451E0008F3
:10016000451E0008451E0008451E0008451E0008E3
:10017000451E0008451E0008451E0008000000003E
:08018000451E0008451E0008A1
:1001900010B5054C237833B9044B13B10448AFF3C1
:1001A00000800123237010BD040000200000000027
:1001B000901E000808B5034B1BB103490348AFF379
:1001C000008008BD0000000008000020901E00080C
:1001D0007BB972B90029BEBF00204FF0004106E094
:1001E00008BF00281CBF6FF000414FF0FF3000F047
:1001F000C5B9ADF1080C6DE904CE002909DB002B6F
:100200001ADB00F04DF8DDF804E0DDE9022304B06C
:100210007047404261EB4101002B1BDB00F040F8CE
:10022000DDF804E0DDE9022304B0404261EB410166
:10023000524263EB43037047524263EB430300F0C7
:100240002FF8DDF804E0DDE9022304B0404261EB61
:1002500041017047524263EB430300F021F8DDF89F
:1002600004E0DDE9022304B0524263EB430370472C
:1002700053B94AB9002908BF00281CBF4FF0FF310D
:100280004FF0FF3000F07AB9ADF1080C6DE904CE03
:1002900000F006F8DDF804E0DDE9022304B0704761
:1002A0002DE9F0478C460D460446089E002B51D19F
:1002B0008A4217466DD9B2FA82FEBEF1000F0BD00A
:1002C000CEF1200C01FA0EF520FA0CFC02FA0EF722
:1002D0004CEA050C00FA0EF44FEA174A250CBCFB59
:1002E000FAF81FFA87F90AFB18CC45EA0C4508FB17
:1002F00009F3AB420AD9ED1908F1FF3280F02381EE
:10030000AB4240F22081A8F102083D44ED1AA4B2AC
:10031000B5FBFAF00AFB105544EA054400FB09F965
:10032000A14509D9E41900F1FF3380F00A81A14504
:1003300040F2078102383C44A4EB090440EA08403B
:100340000021002E61D024FA0EF400233460736083
:10035000BDE8F0878B4207D9002E54D0002186E8F3
:1003600021000846BDE8F087B3FA83F1002940F088
:100370008E80AB4202D3824200F2FA80841A65EB8F
:1003800003050120AC46002E3FD086E81010BDE8E2
:10039000F08712B90127B7FBF2F7B7FA87FEBEF173
:1003A000000F34D1EB1B3A0C1FFA87FC0121B3FB81
:1003B000F2F8250C02FB183345EA03450CFB08F361
:1003C000AB4207D9ED1908F1FF3002D2AB4200F27F
:1003D000D1808046ED1AA3B2B5FBF2F002FB1055B6
:1003E00043EA05440CFB00FCA44507D9E41900F1DD
:1003F000FF3302D2A44500F2B8801846A4EB0C04E7
:1004000040EA08409DE731463046BDE8F087CEF12E
:10041000200405FA0EF307FA0EF720FA04F83A0C56
:1004200025FA04F448EA0308B4FBF2F14FEA184550
:1004300002FB11441FFA87FC45EA044501FB0CF35B
:10044000AB4200FA0EF409D9ED1901F1FF3080F04A
:100450008A80AB4240F2878002393D44EB1A1FFA92
:1004600088F5B3FBF2F002FB103345EA034500FBCD
:100470000CF3AB4207D9ED1900F1FF386FD2AB4254
:100480006DD902383D44EB1A40EA01418FE7C1F1D2
:10049000200722FA07F88B4005FA01F448EA030323
:1004A00020FA07FE4FEA134CFD404EEA040EB5FB5E
:1004B000FCF94FEA1E440CFB19551FFA83F844EA75
:1004C000054509FB08F4AC4202FA01F200FA01FA10
:1004D00008D9ED1809F1FF3043D2AC4241D9A9F156
:1004E00002091D442D1B1FFA8EFEB5FBFCF00CFB10
:1004F00010554EEA054400FB08F8A04507D9E4185A
:1005000000F1FF3529D2A04527D902381C4440EA22
:100510000940A4EB0804A0FB02894C45C6464D46A1
:1005200015D312D056B1BAEB0E0364EB050404FAEE
:1005300007F7CB401F43CC40376074600021BDE813
:10054000F0871846F8E69046E0E6C245EAD2B8EBF6
:10055000020E69EB03050138E4E72846D7E7404679
:1005600091E78146BEE7014678E702383C4445E71B
:10057000084608E7A8F102083D442BE7704700BF92
:1005800008B50B4B1A6842F400721A601A6842F4FC
:1005900080621A601A6842F480721A60032000F0C8
:1005A00027F8002001F09EFB01F06CFB002008BD45
:1005B000003C0240024A136801331360704700BFD9
:1005C000F4000020014B1868704700BFF4000020C1
:1005D00037B50190FFF7F6FF019C631C054618BF75
:1005E0000134FFF7EFFF401BA042FAD303B030BD48
:1005F000074AD36823F4E0631B041B0C43F0BF637A
:10060000000243F4003300F4E0600343D36070471A
:1006100000ED00E0174B30B5DC68C4F30224C4F1F0
:100620000703251D042B28BF0423062D4FF00105C9
:1006300005FA03F303F1FF338CBF033C0024194098
:10064000A14005FA04F4013C2240002842EA0102DC
:100650004FEA0212AFBF00F1604000F00F00064BFE
:10066000D2B2A5BF00F56140D2B21A5480F800237F
:1006700030BD00BF00ED00E014ED00E042090123B1
:1006800000F01F0003FA00F0014B43F8220070470E
:1006900000E100E00138B0F1807F0AD2064B074A42
:1006A0005860F02182F823100020072298601A6019
:1006B00070470120704700BF10E000E000ED00E04F
:1006C000044B1A6804280CBF42F0040222F0040212
:1006D0001A60704710E000E02DE9F04F85B00B681C
:1006E000DFF8AC81684ADFF8AC91019300234FF04A
:1006F000010E019C0EFA03FE0EEA0406B64540F018
:10070000AE804C6824F01007022F16D14FEAD30AAE
:1007100000EB8A0A03F0070BDAF820504FEA8B0B44
:100720004FF00F0C0CFA0BFC25EA0C0C0D6905FAC6
:100730000BF545EA0C05CAF820504FEA430A032599
:10074000D0F800B005FA0AF5ED4304F0030C0BEA0B
:10075000050B0CFA0AFC013F4CEA0B0C012FC0F808
:1007600000C011D8876807EA050BCF6807FA0AFCB2
:100770004CEA0B078760476827EA0E0EC4F30017A0
:100780009F4047EA0E074760C7683D408F6807FAF9
:100790000AF73D43C560E50061D54FF0000BCDF889
:1007A0000CB0D8F84470394D47F48047C8F844700D
:1007B000D8F8447007F480470397039F23F003079A
:1007C00007F1804707F59C3703F0030CD7F808A022
:1007D0004FEA8C0C4FF00F0E0EFA0CFEA8422AEADC
:1007E0000E0E43D005F58065A84241D005F5806521
:1007F000A8423FD005F58065A8423DD005F580654B
:10080000A8423BD048453BD005F50065A84239D009
:1008100005F58065A84214BF0825072505FA0CF5E3
:1008200045EA0E05BD601568F74314F4803F0CBF20
:100830003D4035431560556814F4003F0CBF3D4002
:1008400035435560956814F4801F0CBF3D40354317
:100850009560D568A40254BF3D403543D56001334F
:10086000102B7FF444AF05B0BDE8F08F5D46D5E7AF
:100870000125D3E70225D1E70325CFE70425CDE7FE
:100880000525CBE70625C9E7003C014000000240F2
:1008900000380240001402400369194214BF0120CD
:1008A000002070470AB1816170470904FBE7436982
:1008B000594041617047704708B5044B596901427E
:1008C00002D05861FFF7F7FF08BD00BF003C0140B0
:1008D000F7B5044610B9012003B0F0BD0368D8078E
:1008E0003BD42368990700F1848023681E0700F138
:1008F000C68023685D072AD500230193AA4BAB4D20
:100900001A6C42F080521A641B6C03F080530193FE
:10091000019B2B6843F480732B60FFF753FE064660
:100920002B68DA0540F1CD80A3689F4D012B40F084
:10093000CF802B6F43F001032B67FFF743FE9A4DE7
:10094000064641F288372B6F9B0740F1E280A2698F
:10095000002A40F0E5800020BEE7934B9A6802F041
:100960000C02042A07D09A6802F00C02082A0AD165
:100970005B685A0207D58C4B1B689B03B1D5636833
:10098000002BAED1A7E76368874DB3F5803F11D147
:100990002B6843F480332B60FFF714FE824D06462C
:1009A0002B689F039DD4FFF70DFE801B6428F7D9A9
:1009B000032091E7B3F5A02F04D12B6843F48023E3
:1009C0002B60E5E72A6822F480322A602A6822F444
:1009D00080222A60002BDFD1FFF7F4FD06462B684A
:1009E00098037FF57EAFFFF7EDFD801B6428F6D9F5
:1009F000DEE76D4B9A6812F00C0F07D09A6802F090
:100A00000C02082A12D15B6859020FD4664B1A688F
:100A1000920703D5E268012A7FF45DAF1A68216965
:100A200022F0F80242EAC1021A605EE7E268604B17
:100A3000B2B101221A60FFF7C5FD5B4D06462B6877
:100A40009B0707D52B68226923F0F80343EAC2030A
:100A50002B604AE7FFF7B6FD801B0228EFD9A7E716
:100A60001A60FFF7AFFD504D06462B689F077FF5D4
:100A70003CAFFFF7A7FD801B0228F6D998E7626913
:100A80004C4B7AB101221A60FFF79CFD464D064699
:100A90006B6F98073FF52DAFFFF794FD801B022881
:100AA000F6D985E71A60FFF78DFD3F4D06466B6F5F
:100AB00099077FF51EAFFFF785FD801B0228F6D949
:100AC00076E7FFF77FFD801B02287FF629AF6FE7EF
:100AD000052B04D12B6F43F004032B6729E72A6F02
:100AE00022F001022A672A6F22F004022A67002BF3
:100AF0007FF423AFFFF766FD41F2883706462B6F80
:100B000098077FF524AFFFF75DFD801BB842F6D94B
:100B10004EE7FFF757FD801BB8427FF614AF47E75B
:100B2000214DAB6803F00C03082B3FF4D4AE224EEA
:100B30000023022A33602AD1FFF744FD07462B68C1
:100B400099011ED4226AE3691343626A43EA82135D
:100B5000E26A43EA0263A26A134C5208013A43EA8A
:100B600002436B6001233360FFF72CFD05462368C9
:100B70009A013FF5F0AEFFF725FD401B0228F6D99C
:100B800016E7FFF71FFDC01B0228D8D910E7FFF7B3
:100B900019FD04462B689B017FF5DDAEFFF712FDC2
:100BA000001B0228F6D903E700380240007000401D
:100BB00000004742800E474260004742134908B593
:100BC0008B6803F00C03042B03D0082B03D01048D0
:100BD00008BD104808BD4A684B68496813F4800393
:100BE00014BF0C480A48C1F3881118BF002302F053
:100BF0003F02A1FB0001FFF73BFB044B5B68C3F323
:100C0000014301335B00B0FBF3F008BD0038024044
:100C10000024F40040787D012DE9F0410D460446A2
:100C200010B90120BDE8F081444B1A6802F00F02B0
:100C30008A4228D321688F072DD4C80740D43F4B60
:100C40001A6802F00F02954266D3226851076CD4ED
:100C5000130707D53A4A2169936823F4604343EAAE
:100C6000C1039360FFF7AAFF354B364A9B68C3F375
:100C70000313D35CD840344B1860002001F032F8E5
:100C80000020BDE8F081CAB21A701B6803F00F03A0
:100C90009942C6D1CEE72A4B11F0040F1EBF9A68C5
:100CA00042F4E0529A600E0742BF9A6842F46042F2
:100CB0009A609A68A06822F0F00202439A60BCE74A
:100CC00062681F4B012A1DD11B6813F4003FA8D096
:100CD0001B4EB36823F003031343B360FFF772FCAA
:100CE00041F288380746B368626803F00C03B3EB3F
:100CF000820FA4D0FFF766FCC01B4045F3D9032048
:100D0000BDE8F081911E01291B6802D813F0007F15
:100D1000DDE713F0020FDAE7EAB21A701B6803F09E
:100D20000F039D427FF47DAF8FE70549E0688B6834
:100D300023F4E05303438B608AE700BF003C02408A
:100D400000380240BD1E000800000020014B18685A
:100D5000704700BF00000020044B054A9B68C3F3A6
:100D60008223D35C034A1068D840704700380240A1
:100D7000CD1E0008000000200F2303600B4B9A6873
:100D800002F0030242609A6802F0F00282609A6800
:100D900002F4E052C2609B68DB0803F4E053036195
:100DA000034B1B6803F00F030B60704700380240D1
:100DB000003C0240036A23F001030362036A4268B5
:100DC00070B584690D6824F0730425438C6823F0A2
:100DD000020323430C4CA04209D004F58064A042D6
:100DE00005D042604A6885614263036270BDCC6889
:100DF0008E6923F0080323434C6922F44072344384
:100E000023F004032243ECE700000140036A23F4CB
:100E100080730362036A426870B5C4690D6824F088
:100E2000730425438C6823F4007343EA04230E4CB7
:100E3000A04209D004F58064A04205D042604A680F
:100E4000C561C263036270BDCC688E6923F4006320
:100E500043EA04234C6922F44052344323F4806370
:100E600042EA0412EAE700BF00000140036A23F4EB
:100E70008053036230B5046A4368C2690D6822F486
:100E8000E64242EA05228D6824F4005444EA05341F
:100E9000094DA84209D005F58065A84205D04360F8
:100EA0004B68C2610364046230BD4D6923F4804322
:100EB00043EA8513F3E700BF000001407047026872
:100EC000022380F83930136843F0010313600123D3
:100ED00080F83930002070470368DA6842F0010278
:100EE000DA601A6842F001021A6000207047704709
:100EF00070477047704703681A69910710B5044638
:100F00000ED5DA6892070BD56FF002021A619B6961
:100F100001229B07027677D0FFF7EAFF00232376B2
:100F200023681A69500710D5DA6851070DD56FF09C
:100F300004021A619B69022213F4407F2276204644
:100F400068D0FFF7D5FF0023237623681A691207BC
:100F50000FD5DA6810070CD56FF008021A61DB694B
:100F600004229907227620465AD0FFF7C1FF0023BA
:100F7000237623681A69D20610D5DA68D0060DD513
:100F80006FF010021A61DB69082213F4407F2276A9
:100F900020464BD0FFF7ACFF0023237623681A6965
:100FA000D10708D5DA68D20705D56FF001021A61BA
:100FB000204600F009FE23681A69100608D5DA6891
:100FC000110605D56FF080021A61204600F001FA83
:100FD00023681A69520608D5DA68500605D56FF0FD
:100FE00040021A612046FFF785FF23681A699106BF
:100FF00022D5DA6892061FD56FF0200220461A61CA
:10100000BDE8104000F0E4B9FFF771FF2046FFF79C
:1010100070FF83E7FFF76BFF2046FFF76AFF92E759
:10102000FFF765FF2046FFF764FFA0E7FFF75FFFCC
:101030002046FFF75EFFAFE710BD00002E4A0368B1
:10104000904212D0B0F1804F0FD0A2F57C42904276
:101050000BD002F58062904207D002F58062904288
:1010600003D002F5784290421DD14A6823F0700304
:101070001343214A904204D1CA6823F440731343B6
:1010800028E0B0F1804FF7D01C4A9042F4D002F52E
:1010900080629042F0D002F580629042ECD002F57E
:1010A00078429042E8D0164A9042E5D002F580623C
:1010B0009042E1D002F580629042DDD0A2F59832F4
:1010C0009042D9D002F580629042D5D002F580627C
:1010D0009042D1D003608B68C3620B688362064B79
:1010E000984206D003F58063984202D00123436101
:1010F00070470B690363F9E70000014000040040FA
:101100000040014010B50446A0B190F8393003F01A
:10111000FF021BB980F83820FFF7D0FE022384F8C5
:1011200039302068211DFFF789FF012384F8393009
:10113000002010BD012010BD10B50446A0B190F8EC
:10114000393003F0FF021BB980F8382000F07AFB39
:10115000022384F839302068211DFFF76FFF012337
:1011600084F83930002010BD012010BD036A23F03F
:1011700010030362036A426870B584690D6824F441
:10118000E64444EA05258C6823F0200343EA04136F
:101190000D4CA04209D004F58064A04205D0426005
:1011A0004A6885618263036270BDCC688E6923F0F2
:1011B000800343EA04134C6922F44062344323F071
:1011C000400342EA8402EAE70000014038B590F8A3
:1011D0003830012B04464FF0020025D0012384F85B
:1011E000383084F839000C2A18D8DFE802F00717E5
:1011F00017171E1717172F17171740002068FFF72C
:10120000D9FD236809699A6942F008029A619A69CE
:1012100022F004029A619A690A439A61012300202C
:1012200084F8393084F8380038BD2068FFF79EFF15
:10123000236809699A6942F400629A619A6922F402
:1012400080629A619A6942EA0122E6E72068FFF724
:10125000DDFD23680969DA6942F00802DA61DA69BA
:1012600022F00402DA61DA690A43DA61D6E720681B
:10127000FFF7FCFD23680969DA6942F40062DA616C
:10128000DA6922F48062DA61DA6942EA0122ECE783
:10129000036A10B501248C4023EA04030362036A45
:1012A0008A401A43026210BD10B50446012200684C
:1012B000FFF7EEFF2368084A934203D002F58062ED
:1012C000934203D15A6C42F400425A641A6842F0C5
:1012D00001021A60002010BD0000014010B5044654
:1012E00000220068FFF7D4FF2368144A934203D01A
:1012F00002F5806293420DD1196A41F21112114236
:1013000008D1196A40F24442114202BF5A6C22F4D9
:1013100000425A64196A41F21112114208D1196A45
:1013200040F24442114203D11A6822F001021A60CD
:10133000012384F83930002010BD00BF00000140B7
:1013400090F83830012B10B54FF0020318D080F818
:10135000393003680C685A68496822F070025A6094
:101360005A6822435A609A6822F080029A609A680A
:101370000A439A60012380F83930002380F838301E
:10138000184610BD90F83830012B1FD0CB688A6802
:1013900023F4407313434A6823F4806313430A68B9
:1013A00023F4006313430A6923F4805313434A6907
:1013B00023F4005313438A6923F440431343026820
:1013C0005364002380F83830184670470220704775
:1013D0007047704708B500F025FA012803D0BDE832
:1013E000084000F067B808BD43684B609A688A609F
:1013F0009A6851609960036808610133036070471F
:101400004168826803698A608268516059688842CD
:1014100008BF5A60002202611868013818607047DE
:10142000074B19680868B0E8F04F80F30988BFF3EC
:101430006F8F4FF0000080F311887047AFF300808A
:101440002800002000000000000000000000000054
:10145000EFF30980BFF36F8F154B1A681EF0100F62
:1014600008BF20ED108A20E9F04F10604DF8043DD0
:101470004FF0500080F31188BFF34F8FBFF36F8F91
:1014800000F054F94FF0000080F3118808BC19688F
:101490000868B0E8F04F1EF0100F08BFB0EC108ADB
:1014A00080F30988BFF36F8F704700BFAFF30080F0
:1014B0002800002008B54FF0500383F31188BFF3D4
:1014C0006F8FBFF34F8F00F09FF818B1034B4FF0B1
:1014D00080521A60002383F3118808BD04ED00E0F8
:1014E000EFF305830F2B0ED9104A9B5C104A12783C
:1014F0009A4208D94FF0500383F31188BFF36F8FDE
:10150000BFF34F8FFEE70B4B0B4A1B68126803F4C7
:10151000E063934208D94FF0500383F31188BFF37F
:101520006F8FBFF34F8FFEE7704700BFF0E300E01F
:10153000200000200CED00E02400002070B50D46D6
:10154000044640B94FF0500383F31188BFF36F8F07
:10155000BFF34F8FFEE7036C43B14FF0500383F3AB
:101560001188BFF36F8FBFF34F8FFEE703680BB98E
:10157000436873BBFFF7B4FFEFF311864FF05003DE
:1015800083F31188BFF36F8FBFF34F8FA26BE36BB1
:101590009A4201D3002014E094F8453001325BB246
:1015A000A2635A1C10D1636A0BB9012009E004F14F
:1015B000240000F0F5F80028F7D0002DF5D0012028
:1015C000286086F3118870BD01335BB284F8453022
:1015D000EBE74FF0500383F31188BFF36F8FBFF336
:1015E0004F8FFEE7064A13681968064B19B94FF08A
:1015F000FF321A6070471268D268D2685268F8E702
:101600002C000020CC0000202DE9F84F3C4B1B683B
:10161000002B53D13B4B1C6801341C60BCB93A4BC6
:101620001A68126842B14FF0500383F31188BFF378
:101630006F8FBFF34F8FFEE7344A19681068186048
:101640001160334A136801331360FFF7CBFF314D4C
:10165000314F2B689C424FF0000B3ED3DFF8A8803F
:10166000DFF8C490D8F80020126872BB4FF0FF3248
:101670002A6032E006F1040A5046FFF7C1FEB16A63
:1016800019B106F11800FFF7BBFEF06AD9F8003077
:10169000012202FA00F11943204BC9F800104FF063
:1016A000140E51460EFB0030FFF79EFE3868F16ABB
:1016B000C26A914228BF4FF0010BD3E7184A136862
:1016C000013313604FF0000B11E0D8F80020D2680E
:1016D000D66871688C42CDD229603A680F4BD16AC6
:1016E00014224A439A58022A28BF4FF0010B0D4A90
:1016F0001268002A18BF4FF0010B5846BDE8F88F5A
:10170000C4000020EC0000202C000020300000204D
:10171000D0000020CC000020280000203400002051
:10172000C0000020F0000020C8000020174B1A68FD
:10173000174B10B512B101221A6010BD1A60154B7B
:101740001B68B3FA83F3DBB2C3F11F0314221249FF
:101750005A4388188C5844B94FF0500383F31188CA
:10176000BFF36F8FBFF34F8FFEE7446808326468A2
:1017700044600A44944204BF62684260142202FB3F
:1017800003135B68DA68054BD6E700BFC40000208E
:10179000F0000020C80000203400002028000020B5
:1017A00038B5C368DC6844B94FF0500383F311883F
:1017B000BFF36F8FBFF34F8FFEE704F11805284684
:1017C000FFF71EFE114B1B68E3B9251D2846FFF7E6
:1017D00017FE0F49E26A08680123934003430B6038
:1017E0000C4B1420294600FB0230FFF7FDFD0A4B8D
:1017F000E26A1B68DB6A9A4283BF084B01201860CB
:10180000002038BD29460648EFE700BFC40000208D
:10181000C80000203400002028000020F000002034
:10182000D4000020054B1B6833B1054B1B68002B0F
:101830000CBF02200020704701207047E800002004
:10184000C40000200368114A934282B00DD10023E6
:1018500000930F4B5A6C42F001025A645B6C03F028
:1018600001030093009B02B070470A4A9342FAD1E9
:1018700000230193064B1A6C42F004021A641B6C9D
:1018800003F004030193019BEDE700BF000001405A
:1018900000380240000800407FB50368114A9342B7
:1018A00011D14FF480530193122302930023039329
:1018B00003230493012301A90B480593FEF70CFFB2
:1018C00007B05DF804FB094A9342F9D14FF4805305
:1018D000019312230293002303930323049302230F
:1018E000E9E700BF00000140000C02400008004092
:1018F00030B52C4C2C4A002591B00723204684E8B3
:101900002C00E5602561FFF717FC18B11F2127485F
:1019100000F061F96946234800950195FFF710FD35
:1019200018B12621214800F056F92168204A1D48A7
:101930006023914202934FF000024FF0000302A98E
:1019400002BF059307930893039304930693FFF74D
:101950003DFC18B13721154800F03DF92268144BC1
:101960009A4212D100234FF4005209A90D4809935D
:101970000A930B930C930D930E920F93FFF702FDB6
:1019800018B14521094800F026F90648FFF784FF01
:101990000448FFF794FA00210248FFF785FC11B0D4
:1019A00030BD00BFF800002000080040A81E00085D
:1019B000000001402DE9F0418CB0444B444E454DB0
:1019C000002401941A6B42F080021A631A6B02F031
:1019D00080020192019A02941A6B42F001021A638A
:1019E0001A6B02F001020292029A03941A6B42F0FF
:1019F00010021A631A6B02F010020392039A049405
:101A00001A6B42F008021A631A6B02F00802049281
:101A1000049A05941A6B42F004021A631A6B02F0DE
:101A200004020592059A06941A6B42F002021A63A8
:101A30001B6B03F002030693224630460821069BE7
:101A4000FEF730FF284601224FF48071FEF72AFF8F
:101A5000224628464FF48041FEF724FF4FF011083C
:101A6000082307A93046079301260327CDF82080D5
:101A700009940A94FEF730FE4FF4807307A92846B4
:101A80000793089609940A97FEF726FE4FF48063A1
:101A9000079307A9104B089328460994FEF71CFEEC
:101AA0004FF4804307A928460793CDF82080099476
:101AB0000A96FEF711FE07A90848079608960994AA
:101AC0000A97FEF709FE0CB0BDE8F081003802402D
:101AD00000000240001002400000211000040240FB
:101AE00070B594B0284B002101911A6C42F08052DD
:101AF0001A641B6C03F080530193019B234B0291EA
:101B00001A6842F480421A601B6803F4804302930F
:101B1000029B012308934FF4803309934FF4800311
:101B20000F9319230224109304264FF4A87308A8D6
:101B30000E94119312941396FEF7CAFE00B1FEE7BD
:101B40004FF4A053059006930F254FF480530521C1
:101B500003A8049403950793FFF75EF8044600B1C9
:101B6000FEE7FFF7F3F84FF47A73B0FBF3F0FEF7FC
:101B700091FD3046FEF7A4FD224629464FF0FF3086
:101B8000FEF748FD14B070BD003802400070004000
:101B900008B5FEF7F5FCFFF7A3FFFFF70BFFFFF714
:101BA000A7FE4FF4FA4000F03FF84FF6FF7000F048
:101BB0003BF80A20FEF70CFD47F6FF7000F034F802
:101BC0000A20FEF705FDF0E70368B3F1804F01D16D
:101BD000FEF7F0BC7047FEE740F22D13013BFDD14C
:101BE0007047000010B54FF4804104460C48FEF7E2
:101BF00053FE80B2A04212D000210A48FFF76EFBCC
:101C0000FFF7EAFF4FF480410548FEF750FEFFF76B
:101C1000E3FF00210348BDE81040FFF745BB10BDBE
:101C200000100240F800002010B5C0F30E04C00BF5
:101C3000FFF7D8FFC4B141F2C2626243D3170FA1CC
:101C4000D1E90001FEF7C4FA4FF6E85380B298429A
:101C500028BF18463728084B38BF3720D8624008BD
:101C6000586381221A6010BD034B42F21072DA628F
:101C70005A63F6E7AFF30080000800400049D971CD
:101C80000200000008B50320FEF7B2FC0022114656
:101C90006FF00B00FEF7BEFC002211466FF00A0049
:101CA000FEF7B8FC002211466FF00900FEF7B2FC07
:101CB000002211466FF00400FEF7ACFC0022114632
:101CC0006FF00300FEF7A6FC00220F216FF0010069
:101CD000FEF7A0FC00220F214FF0FF30BDE80840C6
:101CE000FEF798BC30B5014689B000221C20FEF7F3
:101CF00091FC1C20FEF7C2FC0025154B02951A6CC6
:101D0000144C42F001021A641B6C03F001030293AD
:101D100001A903A8029BFFF72FF8FFF71DF84FF06A
:101D20008043236040F2E733E36040000A4BB0FB9E
:101D3000F3F00138606020462561A560FFF7E2F905
:101D400020B92046FFF7C8F809B030BD0120FBE7F5
:101D5000003802405801002040420F00FFF73ABB14
:101D60000148FFF7C8B800BF5801002007B502A915
:101D7000002341F8043D0A4B1868FFF7DFFB4FF4DE
:101D80008060FEF799FD019B3BB1064B4FF08052FE
:101D90001A60BFF34F8FBFF36F8F03B05DF804FB82
:101DA0004001002004ED00E00F49D1F8883043F4F1
:101DB0007003C1F888300D4B1A68002042F0010210
:101DC0001A6098601A6822F0847222F480321A60D5
:101DD000074A5A601A6822F480221A60D8604FF0CD
:101DE00000638B60704700BF00ED00E000380240E8
:101DF00010300024DFF834D0002103E00C4B5B5896
:101E0000435004310B480C4B42189A42F6D30B4A0C
:101E100002E0002342F8043B094B9A42F9D3FFF752
:101E2000C3FF00F011F8FFF7B3FE70470000022077
:101E3000E81E00080000002004000020040000202C
:101E400094010020FEE7000070B50D4E0D4CA41B60
:101E5000A4100025A54209D10B4E0C4C00F018F837
:101E6000A41BA4100025A54205D170BD56F825304D
:101E700098470135EEE756F8253098470135F2E7E7
:101E8000E01E0008E01E0008E01E0008E41E000836
:101E9000F8B500BFF8BC08BC9E467047F8B500BF57
:081EA000F8BC08BC9E46704727
:101EA8002E2E5C5372635C54494D5F6F707073657E
:101EB80074742E630000000000000000000102039B
:101EC80004060708090000000001020304000000DE
:081ED800C8E3FF7F01000000D8
:041EE000B501000840
:041EE4009101000860
:041EE8000024F400DE
:0400000508001DF5DD
:00000001FF
