:020000040800F2
:1000000000000220753C0008C53C0008C53C000803
:10001000C53C0008C53C0008C53C000800000000C5
:10002000000000000000000000000000711A00083D
:10003000C53C000800000000011B0008F13B00085F
:10004000C53C0008C53C0008C53C0008C53C00088C
:10005000C53C0008C53C0008C53C0008C53C00087C
:10006000C53C0008C53C0008C53C0008C53C00086C
:10007000C53C0008C53C0008C53C0008C53C00085C
:10008000C53C0008C53C0008C53C0008C53C00084C
:10009000C53C0008C53C0008C53C0008C53C00083C
:1000A000C53C0008C53C0008C53C0008C53C00082C
:1000B000F53B0008C53C0008C53C0008C53C0008ED
:1000C000C53C0008C53C0008C53C0008C53C00080C
:1000D000C53C0008C53C0008C53C0008C53C0008FC
:1000E000013C0008C53C0008C53C0008C53C0008B0
:1000F000C53C0008C53C0008C53C0008C53C0008DC
:10010000C53C0008C53C0008C53C0008C53C0008CB
:10011000C53C0008C53C0008C53C0008C53C0008BB
:10012000C53C0008C53C0008C53C0008C53C0008AB
:10013000C53C0008C53C0008C53C0008C53C00089B
:10014000C53C0008C53C0008C53C0008C53C00088B
:10015000C53C0008C53C0008C53C0008C53C00087B
:10016000C53C0008C53C0008C53C0008C53C00086B
:10017000C53C0008C53C0008C53C00080000000064
:08018000C53C0008C53C000865
:1001900010B5054C237833B9044B13B10448AFF3C1
:1001A00000800123237010BD080000200000000023
:1001B000283D000808B5034B1BB103490348AFF3C2
:1001C000008008BD000000000C000020283D000851
:1001D0007BB972B90029BEBF00204FF0004106E094
:1001E00008BF00281CBF6FF000414FF0FF3000F047
:1001F000C5B9ADF1080C6DE904CE002909DB002B6F
:100200001ADB00F04DF8DDF804E0DDE9022304B06C
:100210007047404261EB4101002B1BDB00F040F8CE
:10022000DDF804E0DDE9022304B0404261EB410166
:10023000524263EB43037047524263EB430300F0C7
:100240002FF8DDF804E0DDE9022304B0404261EB61
:1002500041017047524263EB430300F021F8DDF89F
:1002600004E0DDE9022304B0524263EB430370472C
:1002700053B94AB9002908BF00281CBF4FF0FF310D
:100280004FF0FF3000F07AB9ADF1080C6DE904CE03
:1002900000F006F8DDF804E0DDE9022304B0704761
:1002A0002DE9F0478C460D460446089E002B51D19F
:1002B0008A4217466DD9B2FA82FEBEF1000F0BD00A
:1002C000CEF1200C01FA0EF520FA0CFC02FA0EF722
:1002D0004CEA050C00FA0EF44FEA174A250CBCFB59
:1002E000FAF81FFA87F90AFB18CC45EA0C4508FB17
:1002F00009F3AB420AD9ED1908F1FF3280F02381EE
:10030000AB4240F22081A8F102083D44ED1AA4B2AC
:10031000B5FBFAF00AFB105544EA054400FB09F965
:10032000A14509D9E41900F1FF3380F00A81A14504
:1003300040F2078102383C44A4EB090440EA08403B
:100340000021002E61D024FA0EF400233460736083
:10035000BDE8F0878B4207D9002E54D0002186E8F3
:1003600021000846BDE8F087B3FA83F1002940F088
:100370008E80AB4202D3824200F2FA80841A65EB8F
:1003800003050120AC46002E3FD086E81010BDE8E2
:10039000F08712B90127B7FBF2F7B7FA87FEBEF173
:1003A000000F34D1EB1B3A0C1FFA87FC0121B3FB81
:1003B000F2F8250C02FB183345EA03450CFB08F361
:1003C000AB4207D9ED1908F1FF3002D2AB4200F27F
:1003D000D1808046ED1AA3B2B5FBF2F002FB1055B6
:1003E00043EA05440CFB00FCA44507D9E41900F1DD
:1003F000FF3302D2A44500F2B8801846A4EB0C04E7
:1004000040EA08409DE731463046BDE8F087CEF12E
:10041000200405FA0EF307FA0EF720FA04F83A0C56
:1004200025FA04F448EA0308B4FBF2F14FEA184550
:1004300002FB11441FFA87FC45EA044501FB0CF35B
:10044000AB4200FA0EF409D9ED1901F1FF3080F04A
:100450008A80AB4240F2878002393D44EB1A1FFA92
:1004600088F5B3FBF2F002FB103345EA034500FBCD
:100470000CF3AB4207D9ED1900F1FF386FD2AB4254
:100480006DD902383D44EB1A40EA01418FE7C1F1D2
:10049000200722FA07F88B4005FA01F448EA030323
:1004A00020FA07FE4FEA134CFD404EEA040EB5FB5E
:1004B000FCF94FEA1E440CFB19551FFA83F844EA75
:1004C000054509FB08F4AC4202FA01F200FA01FA10
:1004D00008D9ED1809F1FF3043D2AC4241D9A9F156
:1004E00002091D442D1B1FFA8EFEB5FBFCF00CFB10
:1004F00010554EEA054400FB08F8A04507D9E4185A
:1005000000F1FF3529D2A04527D902381C4440EA22
:100510000940A4EB0804A0FB02894C45C6464D46A1
:1005200015D312D056B1BAEB0E0364EB050404FAEE
:1005300007F7CB401F43CC40376074600021BDE813
:10054000F0871846F8E69046E0E6C245EAD2B8EBF6
:10055000020E69EB03050138E4E72846D7E7404679
:1005600091E78146BEE7014678E702383C4445E71B
:10057000084608E7A8F102083D442BE7704700BF92
:1005800008B50B4B1A6842F400721A601A6842F4FC
:1005900080621A601A6842F480721A60032000F0C8
:1005A00017F8002003F0E8FA03F0B6FA002008BDBF
:1005B000003C0240024A136801331360704700BFD9
:1005C000AC3D0020014B1868704700BFAC3D0020D7
:1005D000074AD36823F4E0631B041B0C43F0BF639A
:1005E000000243F4003300F4E0600343D36070473B
:1005F00000ED00E0174B30B5DC68C4F30224C4F111
:100600000703251D042B28BF0423062D4FF00105E9
:1006100005FA03F303F1FF338CBF033C00241940B8
:10062000A14005FA04F4013C2240002842EA0102FC
:100630004FEA0212AFBF00F1604000F00F00064B1E
:10064000D2B2A5BF00F56140D2B21A5480F800239F
:1006500030BD00BF00ED00E014ED00E042090123D1
:1006600000F01F0003FA00F0014B43F8220070472E
:1006700000E100E00138B0F1807F0AD2064B074A62
:100680005860F02182F823100020072298601A6039
:1006900070470120704700BF10E000E000ED00E06F
:1006A000044B1A6804280CBF42F0040222F0040232
:1006B0001A60704710E000E02DE9F04F85B00B683C
:1006C000DFF8AC81684ADFF8AC91019300234FF06A
:1006D000010E019C0EFA03FE0EEA0406B64540F038
:1006E000AE804C6824F01007022F16D14FEAD30ACF
:1006F00000EB8A0A03F0070BDAF820504FEA8B0B65
:100700004FF00F0C0CFA0BFC25EA0C0C0D6905FAE6
:100710000BF545EA0C05CAF820504FEA430A0325B9
:10072000D0F800B005FA0AF5ED4304F0030C0BEA2B
:10073000050B0CFA0AFC013F4CEA0B0C012FC0F828
:1007400000C011D8876807EA050BCF6807FA0AFCD2
:100750004CEA0B078760476827EA0E0EC4F30017C0
:100760009F4047EA0E074760C7683D408F6807FA19
:100770000AF73D43C560E50061D54FF0000BCDF8A9
:100780000CB0D8F84470394D47F48047C8F844702D
:10079000D8F8447007F480470397039F23F00307BA
:1007A00007F1804707F59C3703F0030CD7F808A042
:1007B0004FEA8C0C4FF00F0E0EFA0CFEA8422AEAFC
:1007C0000E0E43D005F58065A84241D005F5806541
:1007D000A8423FD005F58065A8423DD005F580656B
:1007E000A8423BD048453BD005F50065A84239D02A
:1007F00005F58065A84214BF0825072505FA0CF504
:1008000045EA0E05BD601568F74314F4803F0CBF40
:100810003D4035431560556814F4003F0CBF3D4022
:1008200035435560956814F4801F0CBF3D40354337
:100830009560D568A40254BF3D403543D56001336F
:10084000102B7FF444AF05B0BDE8F08F5D46D5E7CF
:100850000125D3E70225D1E70325CFE70425CDE71E
:100860000525CBE70625C9E7003C01400000024012
:1008700000380240001402400AB181617047090447
:10088000FBE7704708B5044B5969014202D0586133
:10089000FFF7F7FF08BD00BF003C0140F7B5044675
:1008A00010B9012003B0F0BD0368D8073BD423681A
:1008B000990700F1848023681E0700F1C680236831
:1008C0005D072AD500230193AA4BAB4D1A6C42F069
:1008D00080521A641B6C03F080530193019B2B68B8
:1008E00043F480732B60FFF76DFE06462B68DA0534
:1008F00040F1CD80A3689F4D012B40F0CF802B6F3E
:1009000043F001032B67FFF75DFE9A4D064641F267
:1009100088372B6F9B0740F1E280A269002A40F0E4
:10092000E5800020BEE7934B9A6802F00C02042A8F
:1009300007D09A6802F00C02082A0AD15B685A02B2
:1009400007D58C4B1B689B03B1D56368002BAED1D8
:10095000A7E76368874DB3F5803F11D12B6843F457
:1009600080332B60FFF72EFE824D06462B689F03D7
:100970009DD4FFF727FE801B6428F7D9032091E759
:10098000B3F5A02F04D12B6843F480232B60E5E757
:100990002A6822F480322A602A6822F480222A609F
:1009A000002BDFD1FFF70EFE06462B6898037FF57C
:1009B0007EAFFFF707FE801B6428F6D9DEE76D4B9C
:1009C0009A6812F00C0F07D09A6802F00C02082AFD
:1009D00012D15B6859020FD4664B1A68920703D58F
:1009E000E268012A7FF45DAF1A68216922F0F802FB
:1009F00042EAC1021A605EE7E268604BB2B10122CE
:100A00001A60FFF7DFFD5B4D06462B689B0707D595
:100A10002B68226923F0F80343EAC2032B604AE7FC
:100A2000FFF7D0FD801B0228EFD9A7E71A60FFF778
:100A3000C9FD504D06462B689F077FF53CAFFFF779
:100A4000C1FD801B0228F6D998E762694C4B7AB148
:100A500001221A60FFF7B6FD464D06466B6F9807F8
:100A60003FF52DAFFFF7AEFD801B0228F6D985E7D5
:100A70001A60FFF7A7FD3F4D06466B6F99077FF59C
:100A80001EAFFFF79FFD801B0228F6D976E7FFF720
:100A900099FD801B02287FF629AF6FE7052B04D153
:100AA0002B6F43F004032B6729E72A6F22F0010222
:100AB0002A672A6F22F004022A67002B7FF423AFF3
:100AC000FFF780FD41F2883706462B6F98077FF5C8
:100AD00024AFFFF777FD801BB842F6D94EE7FFF74A
:100AE00071FD801BB8427FF614AF47E7214DAB681C
:100AF00003F00C03082B3FF4D4AE224E0023022A4D
:100B000033602AD1FFF75EFD07462B6899011ED49A
:100B1000226AE3691343626A43EA8213E26A43EAA0
:100B20000263A26A134C5208013A43EA02436B6023
:100B300001233360FFF746FD054623689A013FF520
:100B4000F0AEFFF73FFD401B0228F6D916E7FFF78E
:100B500039FDC01B0228D8D910E7FFF733FD044642
:100B60002B689B017FF5DDAEFFF72CFD001B0228F3
:100B7000F6D903E700380240007000400000474209
:100B8000800E474260004742134908B58B6803F066
:100B90000C03042B03D0082B03D0104808BD1048C9
:100BA00008BD4A684B68496813F4800314BF0C48B9
:100BB0000A48C1F3881118BF002302F03F02A1FBCD
:100BC0000001FFF755FB044B5B68C3F3014301339E
:100BD0005B00B0FBF3F008BD003802400024F400D5
:100BE00040787D012DE9F0410D46044610B9012001
:100BF000BDE8F081444B1A6802F00F028A4228D304
:100C000021688F072DD4C80740D43F4B1A6802F0E3
:100C10000F02954266D3226851076CD4130707D59B
:100C20003A4A2169936823F4604343EAC10393601D
:100C3000FFF7AAFF354B364A9B68C3F30313D35C17
:100C4000D840344B1860002002F096FF0020BDE829
:100C5000F081CAB21A701B6803F00F039942C6D123
:100C6000CEE72A4B11F0040F1EBF9A6842F4E052FF
:100C70009A600E0742BF9A6842F460429A609A688E
:100C8000A06822F0F00202439A60BCE762681F4B42
:100C9000012A1DD11B6813F4003FA8D01B4EB36876
:100CA00023F003031343B360FFF78CFC41F2883851
:100CB0000746B368626803F00C03B3EB820FA4D05D
:100CC000FFF780FCC01B4045F3D90320BDE8F0814D
:100CD000911E01291B6802D813F0007FDDE713F095
:100CE000020FDAE7EAB21A701B6803F00F039D42A5
:100CF0007FF47DAF8FE70549E0688B6823F4E0530C
:100D000003438B608AE700BF003C0240003802408A
:100D1000F93D000804000020014B1868704700BF2F
:100D200004000020044B054A9B68C3F38223D35C74
:100D3000034A1068D840704700380240093E000856
:100D4000040000200F2303600B4B9A6802F003029B
:100D500042609A6802F0F00282609A6802F4E052FF
:100D6000C2609B68DB0803F4E0530361034B1B681C
:100D700003F00F030B60704700380240003C024054
:100D80002DE9F041069E0446884617461D46226816
:100D9000936838EA03030CBF012300239F4202D16A
:100DA0000020BDE8F0816B1CF2D055BB23685A6867
:100DB00022F0E0025A606268B2F5827F0AD1A2682E
:100DC000B2F5004F02D0B2F5806F03D11A6822F05D
:100DD00040021A60A26AB2F5005F09D11A6822F4D3
:100DE00000521204120C1A601A6842F400521A607F
:100DF000012384F85130002384F850300320BDE8EB
:100E0000F081FFF7DFFB801B8542C0D8CEE713B52A
:100E10000B460092802100220446FFF7B1FF20B16B
:100E2000636D43F020036365032002B010BD10B56D
:100E30000446002836D00023836290F8513003F036
:100E4000FF021BB980F8502002F03EFE2168A06826
:100E5000A269022384F851300B6823F040030B6031
:100E600063680343E0680343206903436069034305
:100E7000E0690343206A0343A06A034302F400705D
:100E800003430B60120C636A02F004021A434A60C7
:100E9000CB6923F40063CB6100200123606584F8F3
:100EA000513010BD012010BD2DE9FF411E4690F8C4
:100EB0005030012B04460D46904600F09C800123E3
:100EC00080F85030FFF77EFB074694F85100C0B21F
:100ED000012840F08E80002D4ED0B8F1000F4BD08D
:100EE000032384F8513000236365A363A4F836809C
:100EF000A387E38763642364A3682563B3F5004F86
:100F00002368A4F8348002BF1A6842F480421A6051
:100F10001A6852065EBF1A6842F040021A60E26820
:100F2000B2F5006F626838D11AB1E28E92B2012A2E
:100F300006D135F8022BDA60E38E013B9BB2E386E3
:100F4000E38E9BB293B900973346012202212046DB
:100F5000FFF716FF78B93A4631462046FFF757FFAC
:100F6000002838D020236365012005E023689A68B3
:100F70009007DED44EB90320012384F851300023BA
:100F800084F8503004B0BDE8F081711CD8D0FFF770
:100F900019FBC01B8642D3D8EDE71AB1E28E92B29C
:100FA000012A06D115F8012B1A73E38E013B9BB27F
:100FB000E386E38E9BB2002BC5D023689A68920724
:100FC000F0D4002ED7D0731CF3D0FFF7FBFAC01B70
:100FD0008642EED8CFE7A36833B903932368DA6873
:100FE00003929B680393039B606D003018BF012040
:100FF000C2E70220C0E70220C4E72DE9F04399468A
:1010000090F8503085B0012B04460D4616460C9FD3
:1010100000F0ED80012380F85030FFF7D3FA94F808
:1010200051306168DBB2012B80460AD0B1F5827F76
:1010300040F0DB80A268002A40F0D780042B40F00B
:10104000D480002D4ED0002E4CD0B9F1000F49D0E5
:1010500094F85130A663012B04BF052384F8513066
:1010600000236365236463642368A4F83E90A4F8B6
:1010700036901A68A4F83C90500658BF1A68256349
:1010800058BF42F04002A4F8349058BF1A60E2689A
:10109000B2F5006F5DD119B1E28E92B2012A06D18C
:1010A00035F8022BDA60E38E013B9BB2E3864FF00A
:1010B0000109E38E9BB2BBB9E38F9BB2A3B9CDF814
:1010C00000803B46012202212046FFF759FE0028FE
:1010D00035D1424639462046FFF799FE002879D09F
:1010E0002023636501202BE0B9F1000F0FD0E38EC0
:1010F0009BB263B123689A68910708D535F8022B33
:10110000DA60E38E013B9BB2E3864FF00009E38F88
:101110009BB263B123689A68D20708D5DB6826F8CA
:10112000023BE38F013B9BB2E3874FF00109781C40
:10113000BFD0FFF747FAA0EB08008742B9D80320D9
:10114000012384F85130002384F8503005B0BDE805
:10115000F08319B1E28E92B2012A06D115F8012B63
:101160001A73E38E013B9BB2E3864FF00109E38ED5
:101170009BB21BB9E38F9BB2002BA0D0B9F1000F3B
:101180000FD0E38E9BB263B123689A68910708D5AC
:101190002A781A73E38E013B9BB2E38601354FF048
:1011A0000009E38F9BB263B123689A68D20708D520
:1011B000DB683370E38F013B9BB2E38701364FF06E
:1011C00001097B1CD3D0FFF7FDF9A0EB0800874293
:1011D000CDD8B4E7A368002BB2D123680390DA68B6
:1011E00003929B680393039BAAE70220A8E70220CF
:1011F000ACE72DE9F3411E464368B3F5827F044610
:101200000D4690460CD1836853B9042380F85130C1
:10121000134600960A46FFF7F0FE02B0BDE8F081E3
:1012200094F85030012B00F08180012384F8503075
:10123000FFF7C8F9074694F85100C0B2012873D1EE
:10124000002D58D0B8F1000F55D0042384F8513048
:10125000002363652363A4F83E80A386E3862364AA
:101260006364A368A563B3F5004F2368A4F83C80CA
:1012700002BF1A6822F480421A601A6852065EBFE2
:101280001A6842F040021A60E368CBB1E38F9BB268
:10129000D3B123689A68D2073CD5DB6825F8023BB6
:1012A000E38F013B9BB2E387F0E723689A68D0079E
:1012B0001FD51B7B05F8013BE38F013B9BB2E38706
:1012C000E38F9BB2002BF0D16368B3F5827F0BD123
:1012D000A368B3F5004F02D0B3F5806F04D1226844
:1012E000136823F040031360606D003018BF0120C5
:1012F00001E03EB90320012384F85130002384F833
:1013000050308AE7711CDBD0FFF75CF9C01B8642C6
:10131000D6D8EFE7002EEDD0731CB7D0FFF752F907
:10132000C01B8642B2D8E5E70220E4E7022074E75A
:1013300090F8510070470000036A23F00103036234
:10134000036A426870B584690D6824F0730425430C
:101350008C6823F0020323430C4CA04209D004F50F
:101360008064A04205D042604A688561426303629E
:1013700070BDCC688E6923F0080323434C6922F4C6
:101380004072344323F004032243ECE700000140A1
:10139000036A23F480730362036A426870B5C46908
:1013A0000D6824F0730425438C6823F4007343EA2A
:1013B00004230E4CA04209D004F58064A04205D05D
:1013C00042604A68C561C263036270BDCC688E69C1
:1013D00023F4006343EA04234C6922F4405234436B
:1013E00023F4806342EA0412EAE700BF00000140F0
:1013F000036A23F48053036230B5046A4368C26908
:101400000D6822F4E64242EA05228D6824F4005475
:1014100044EA0534094DA84209D005F58065A84283
:1014200005D043604B68C2610364046230BD4D69FE
:1014300023F4804343EA8513F3E700BF0000014033
:1014400070470268022380F83930136843F00103C3
:101450001360012380F83930002070470368DA6890
:1014600042F00102DA601A6842F001021A600020BC
:101470007047704770477047704703681A69910753
:1014800010B504460ED5DA6892070BD56FF002024C
:101490001A619B6901229B07027677D0FFF7EAFF6A
:1014A0000023237623681A69500710D5DA6851079C
:1014B0000DD56FF004021A619B69022213F4407F7C
:1014C0002276204668D0FFF7D5FF002323762368D5
:1014D0001A6912070FD5DA6810070CD56FF00802E9
:1014E0001A61DB6904229907227620465AD0FFF759
:1014F000C1FF0023237623681A69D20610D5DA6863
:10150000D0060DD56FF010021A61DB69082213F4C2
:10151000407F227620464BD0FFF7ACFF0023237696
:1015200023681A69D10708D5DA68D20705D56FF0A4
:1015300001021A61204602F06FFA23681A69100648
:1015400008D5DA68110605D56FF080021A612046C9
:1015500000F0CFF923681A69520608D5DA685006F8
:1015600005D56FF040021A612046FFF785FF23681A
:101570001A69910622D5DA6892061FD56FF020020B
:1015800020461A61BDE8104000F0B2B9FFF771FFC4
:101590002046FFF770FF83E7FFF76BFF2046FFF75A
:1015A0006AFF92E7FFF765FF2046FFF764FFA0E7B9
:1015B000FFF75FFF2046FFF75EFFAFE710BD0000BB
:1015C0002E4A0368904212D0B0F1804F0FD0A2F59E
:1015D0007C4290420BD002F58062904207D002F527
:1015E0008062904203D002F5784290421DD14A6851
:1015F00023F070031343214A904204D1CA6823F4B4
:101600004073134328E0B0F1804FF7D01C4A90425A
:10161000F4D002F580629042F0D002F580629042F0
:10162000ECD002F578429042E8D0164A9042E5D0DC
:1016300002F580629042E1D002F580629042DDD0F6
:10164000A2F598329042D9D002F580629042D5D06E
:1016500002F580629042D1D003608B68C3620B6850
:101660008362064B984206D003F58063984202D00D
:101670000123436170470B690363F9E700000140F0
:10168000000400400040014010B50446A0B190F8AD
:10169000393003F0FF021BB980F83820FFF7D0FE85
:1016A000022384F839302068211DFFF789FF0123C8
:1016B00084F83930002010BD012010BD10B504465B
:1016C000A0B190F8393003F0FF021BB980F8382040
:1016D00001F036FF022384F839302068211DFFF71E
:1016E0006FFF012384F83930002010BD012010BDA8
:1016F000036A23F010030362036A426870B58469C9
:101700000D6824F4E64444EA05258C6823F02003A0
:1017100043EA04130D4CA04209D004F58064A042B2
:1017200005D042604A6885618263036270BDCC68FF
:101730008E6923F0800343EA04134C6922F440626B
:10174000344323F0400342EA8402EAE70000014008
:1017500038B590F83830012B04464FF0020025D000
:10176000012384F8383084F839000C2A18D8DFE8CF
:1017700002F0071717171E1717172F171717400014
:101780002068FFF7D9FD236809699A6942F00802C9
:101790009A619A6922F004029A619A690A439A61ED
:1017A0000123002084F8393084F8380038BD2068DF
:1017B000FFF79EFF236809699A6942F400629A6103
:1017C0009A6922F480629A619A6942EA0122E6E704
:1017D0002068FFF7DDFD23680969DA6942F0080235
:1017E000DA61DA6922F00402DA61DA690A43DA615D
:1017F000D6E72068FFF7FCFD23680969DA6942F43F
:101800000062DA61DA6922F48062DA61DA6942EA56
:101810000122ECE7036A10B501248C4023EA04039B
:101820000362036A8A401A43026210BD10B504467F
:1018300001220068FFF7EEFF2368084A934203D0B5
:1018400002F58062934203D15A6C42F400425A641A
:101850001A6842F001021A60002010BD0000014029
:1018600090F83830012B10B54FF0020318D080F8F3
:10187000393003680C685A68496822F070025A606F
:101880005A6822435A609A6822F080029A609A68E5
:101890000A439A60012380F83930002380F83830F9
:1018A000184610BD90F83830012B1FD0CB688A68DD
:1018B00023F4407313434A6823F4806313430A6894
:1018C00023F4006313430A6923F4805313434A69E2
:1018D00023F4005313438A6923F4404313430268FB
:1018E0005364002380F83830184670470220704750
:1018F0007047704708B500F013FF002008BD30B5F1
:10190000B0F90840028A0B4690E8220085B0842C8A
:1019100014BF0334002403A801900094284600F06B
:101920002FFE01280CBF0398002005B030BD08B57C
:10193000002808BF012001F04BF8002008BD08B5C1
:1019400001F0A8F9012803D0BDE8084000F00AB969
:1019500008BD00F1080343604FF0FF32C36003612C
:10196000002382600360704700230361704743686F
:101970004B609A688A609A68516099600368086150
:101980000133036070470A68531C30B50AD10369FC
:101990005A684A6091608B6059600368086101333E
:1019A000036030BD00F108035C682568AA42EFD3EC
:1019B0002346F9E74168826803698A60826851605A
:1019C0005968884208BF5A600022026118680138CD
:1019D000186070470A4B1B68013308D04FF0500362
:1019E00083F31188BFF36F8FBFF34F8FFEE74FF084
:1019F000500383F31188BFF36F8FBFF34F8FFEE760
:101A00000000002006480068006880F3088862B67D
:101A100061B6BFF34F8FBFF36F8F00DF00BF0000D1
:101A200008ED00E0DFF80C00016841F4700101608E
:101A30007047000088ED00E04FF0807340F8043CF0
:101A4000074B40F80C3C21F001016FF0020340F815
:101A5000081C40F8202C40F8243C4438704700BF54
:101A6000D519000800000000000000000000000080
:101A7000074B19680868B0E8F04F80F30988BFF396
:101A80006F8F4FF0000080F311887047AFF3008034
:101A9000443C00204FF0500383F31188BFF36F8F55
:101AA000BFF34F8F0A4A13680133012B13600DD126
:101AB000084B1B6813F0FF0F08D04FF0500383F35F
:101AC0001188BFF36F8FBFF34F8FFEE7704700BFE2
:101AD0000000002004ED00E0084A136843B94FF00D
:101AE000500383F31188BFF36F8FBFF34F8FFEE76F
:101AF000013B13600BB983F311887047000000208D
:101B0000EFF30980BFF36F8F154B1A681EF0100FAB
:101B100008BF20ED108A20E9F04F10604DF8043D19
:101B20004FF0500080F31188BFF34F8FBFF36F8FDA
:101B300000F0ACFF4FF0000080F3118808BC19687A
:101B40000868B0E8F04F1EF0100F08BFB0EC108A24
:101B500080F30988BFF36F8F704700BFAFF3008039
:101B6000443C002008B54FF0500383F31188BFF3C5
:101B70006F8FBFF34F8F00F021FE18B1034B4FF072
:101B800080521A60002383F3118808BD04ED00E041
:101B9000064B4FF47A721B68B3FBF2F3044A013B25
:101BA0001360044B07221A60704700BF0400002036
:101BB00014E000E010E000E0314B324A13B5196840
:101BC000914208D14FF0500383F31188BFF36F8F18
:101BD000BFF34F8FFEE71A682B4B9A4208D14FF0A4
:101BE000500383F31188BFF36F8FBFF34F8FFEE76E
:101BF000264B1A78D2B20192FF221A701B78244A1F
:101C0000DBB28DF803309DF8033003F050031370FE
:101C1000204B07221A6000219DF80300000602F104
:101C2000FF3423D401B11A601A68120202F4E06290
:101C30001A60019B154ADBB21370174B1A6842F405
:101C400070021A601A6842F070421A60FFF7A0FF33
:101C5000124B00221A60FFF7E5FE114A136843F0A9
:101C600040431360FFF7CEFEFFF7B4FE9DF803205C
:101C70005200D2B28DF8032001212246CCE700BFEA
:101C800000ED00E071C20F4170C20F4100E400E0BE
:101C9000240000202800002020ED00E000000020AB
:101CA00034EF00E0EFF305830F2B0ED9104A9B5C55
:101CB000104A12789A4208D94FF0500383F31188E2
:101CC000BFF36F8FBFF34F8FFEE70B4B0B4A1B68C1
:101CD000126803F4E063934208D94FF0500383F392
:101CE0001188BFF36F8FBFF34F8FFEE7704700BFC0
:101CF000F0E300E0240000200CED00E028000020CC
:101D000010B50F4B1A68824218D35C6819198842C3
:101D100001BF4168184609195960446801198A428F
:101D200007D1084909688A421FBF5168126809191A
:101D300041609842026018BF186010BD1346E1E789
:101D40003C3C00202C0000202DE9F041044600F02E
:101D500027FD3E493E4D0B680BBB3E4A56071FBF51
:101D6000D01D20F0070002F570531B1A14BF024665
:101D70004FF470531344083B23F00703364E0B60B7
:101D800000207060326058601860981A1360334BFE
:101D900050601860324B18604FF000432B602F6882
:101DA000274216D1002C41D004F1080358071CBF6C
:101DB00023F00703083363B1294A1668B3429046FB
:101DC00007D8254A15686868834204D809688D4297
:101DD00007D100242AE02C68002CF7D02A4625469B
:101DE000F1E7296814681160C21A102A0FD9E8189F
:101DF000410708D04FF0500383F31188BFF36F8F72
:101E0000BFF34F8FFEE742606B60FFF779FF134926
:101E10006B680868F61A1F4386424FF00003C8F843
:101E2000006038BF0E6008346F602B6000F058FD12
:101E3000630708D04FF0500383F31188BFF36F8F0F
:101E4000BFF34F8FFEE72046BDE8F0812C00002055
:101E5000303C0020300000203C3C0020383C00207A
:101E6000343C002010B5044670B3184A50F8043CC6
:101E70001268134208D14FF0500383F31188BFF367
:101E80006F8FBFF34F8FFEE750F8081C41B14FF042
:101E9000500383F31188BFF36F8FBFF34F8FFEE7BB
:101EA00023EA020340F8043C00F07AFC084A54F8A4
:101EB000043C1168A4F108000B441360FFF720FFF5
:101EC000BDE8104000F00CBD10BD00BF303C00204C
:101ED000343C002070B51546026C866B044642B94E
:101EE00005689DB9406800F02BFF65600136A66368
:101EF00070BD6DB9806801F00BFFA368226C1344BC
:101F00006268A360934201D32368A3600020EDE7D9
:101F1000C06801F0FDFE236CE26821685B421A4450
:101F20008A42E2603EBF62689B18E360022DEDD1F9
:101F30000EB1013EEAE73046D8E7034610B41A6C0A
:101F4000084662B1D9685C681144A142D96024BFD7
:101F50001968D960D9685DF8044B01F0D9BE5DF805
:101F6000044B704770B50446FFF794FD94F8455054
:101F700004F124066DB2002D14DCFF2384F84530F3
:101F8000FFF7AAFDFFF786FD94F8445004F1100610
:101F90006DB2002D12DCFF2384F84430BDE87040A0
:101FA000FFF79ABD636A002BE7D0304600F0E0FDF2
:101FB00008B100F069FE013D6DB2DCE72369002B3A
:101FC000E9D0304600F0D4FD08B100F05DFE013DDF
:101FD0006DB2DEE738B50D46044640B94FF0500308
:101FE00083F31188BFF36F8FBFF34F8FFEE7FFF7C7
:101FF00051FD206CE36B2268A2604343D1181B1A89
:1020000013446160E3600021FF23A16384F844303E
:1020100084F8453095B9236963B104F1100000F0EC
:10202000A7FD38B10A4B4FF080521A60BFF34F8FB3
:10203000BFF36F8FFFF750FD012038BD04F1100092
:10204000FFF787FC04F12400FFF783FCF2E700BFF1
:1020500004ED00E070B50D46064640B94FF0500360
:1020600083F31188BFF36F8FBFF34F8FFEE74843B1
:102070004830FFF769FE044638B145B92060E66391
:10208000256401212046FFF7A5FF204670BD00F121
:1020900048030360F3E700002DE9FF4789460192FA
:1020A0001F46044640B94FF0500383F31188BFF335
:1020B0006F8FBFF34F8FFEE7002940F08880036CDD
:1020C000002B00F084804FF0500383F31188BFF39E
:1020D0006F8FBFF34F8FFEE7019E002E00F08280CE
:1020E0004FF0500383F31188BFF36F8FBFF34F8F0F
:1020F000FEE7019D1DB9FFF7EFFC002058E016B97F
:1021000002A800F077FDFFF7E7FC00F049FBFFF7BE
:10211000C1FC94F84430FF2B08BF84F8448094F845
:102120004530FF2B08BF84F84580FFF7D5FC01A997
:1021300002A800F06FFD002843D1FFF7ABFCA66BAF
:10214000E56BFFF7C9FCAE4235D1019904F11000EF
:1021500000F0D6FC2046FFF705FF00F0C1FB38B9C0
:102160004FF08053CAF80030BFF34F8FBFF36F8F2B
:102170000126FFF78FFCA26BE36B9A4201D3022F7B
:10218000B7D13A4649462046FFF7A4FE636A1BB121
:1021900004F1240000F0ECFC38B1194B4FF08052F0
:1021A0001A60BFF34F8FBFF36F8FFFF795FC0120CD
:1021B00004B0BDE8F0872046FFF7D4FE00F090FBA6
:1021C000D6E72046FFF7CEFE00F08AFB95E7022F08
:1021D00002D1E36B012B0AD100F05CFD00283FF433
:1021E0007BAF00264FF00008DFF814A0C1E74FF0E6
:1021F000500383F31188BFF36F8FBFF34F8FFEE758
:1022000004ED00E02DE9F843884691461F46044658
:1022100040B94FF0500383F31188BFF36F8FBFF3C2
:102220004F8FFEE709BB036CFBB14FF0500383F304
:102230001188BFF36F8FBFF34F8FFEE704F12400C7
:1022400000F096FC002834D0B9F1000F31D0012005
:10225000C9F8000086F31188BDE8F88301356DB236
:1022600084F8455025E00020F4E7022F02D1E36B0B
:10227000012B20D1FFF716FDEFF311864FF050032D
:1022800083F31188BFF36F8FBFF34F8FA26BE36BA4
:102290009A4201D3022FE6D194F845503A466DB2E6
:1022A00041462046FFF716FE6B1CD7D1636A002B10
:1022B000C4D10120CEE74FF0500383F31188BFF360
:1022C0006F8FBFF34F8FFEE72DE9FF4788460192DE
:1022D0009946044640B94FF0500383F31188BFF389
:1022E0006F8FBFF34F8FFEE7002940F0A580036C8E
:1022F000002B00F0A1804FF0500383F31188BFF34F
:102300006F8FBFF34F8FFEE7019E002E00F09A8083
:102310004FF0500383F31188BFF36F8FBFF34F8FDC
:10232000FEE7636AE660002B6DD004F124005FE0F5
:10233000019D1DB9FFF7D0FB284667E016B902A83A
:1023400000F058FCFFF7C8FB00F02AFAFFF7A2FBE9
:1023500094F84430FF2B08BF84F8447094F845305B
:10236000FF2B08BF84F84570FFF7B6FB01A902A850
:1023700000F050FC002852D1FFF78CFBA56BFFF753
:10238000ABFB002D45D1236833B9FFF783FB6068B1
:1023900000F090FCFFF7A0FB019904F1240000F08D
:1023A000AFFB2046FFF7DEFD00F09AFA38B94FF098
:1023B0008053CAF80030BFF34F8FBFF36F8F0126F1
:1023C000FFF768FBA56B002DB2D041462046E668BA
:1023D000FFF7B3FDB9F1000FA3D12368013DA56359
:1023E00013B900F0FDFC6060236963B104F11000D3
:1023F00000F0BEFB38B1154B4FF080521A60BFF3AE
:102400004F8FBFF36F8FFFF767FB012004B0BDE86C
:10241000F0872046FFF7A6FD00F062FACFE72046DE
:10242000FFF7A0FD00F05CFAFFF734FBA56BFFF7A8
:1024300053FB002DC3D17FE700F02CFC00283FF4B4
:1024400063AF00260027DFF804A0B9E704ED00E041
:1024500030B5074A002352F8335002EBC3041DB9CC
:1024600042F83310606030BD0133082BF3D130BD2A
:10247000B03D002070B504460D461646FFF70AFB36
:1024800094F84430FF2B04BF002384F8443094F8C0
:102490004530FF2B04BF002384F84530FFF71CFBB9
:1024A000A36B2BB93246294604F1240000F042FB0D
:1024B0002046BDE87040FFF755BD0000064A13688E
:1024C0001968064B19B94FF0FF321A60704712684D
:1024D000D268D2685268F8E7483C0020203D0020CE
:1024E000F8B51B4B1B4E1D680446306804300F4680
:1024F000FFF760FA334640B93168174EC96A32684F
:102500000120884022EA00023260621C07D137B104
:10251000196812480431BDE8F840FFF728BA2C4486
:102520001A68A542546007D90D4A10681968BDE8B9
:10253000F8400431FFF727BA0A4A106819680431D5
:10254000FFF721FA084B1A68944238BF1C60F8BDA7
:10255000683D0020443C0020F03C0020403D00202D
:102560004C3C0020483C0020203D00204FF0500310
:1025700083F31188BFF36F8FBFF34F8FFEE7000027
:102580002DE9F84F4FEA820A804650460F46994699
:102590000B9EFFF7D9FB0546002800F096805420DB
:1025A000FFF7D2FB0446002800F08C80AAF1040A51
:1025B000056355447B1E25F0070A00F134020F37EE
:1025C000597802F8011B13F8011F09B1BB42F7D17A
:1025D0000A9D062D28BF06254FF0000B271DE5623A
:1025E0006564384684F843B0C4F848B0FFF7BCF9D6
:1025F000C5F1070504F11800FFF7B6F9C4F84CB0AF
:102600002461A561646284F850B04A464146504650
:10261000FFF712FA206006B13460FFF73BFA324B45
:10262000324E1A68DFF8F08001321A603568002DEA
:102630004ED134601B68012B1DD108EB0500143509
:10264000FFF787F98C2DF8D1DFF8D090284D484658
:10265000FFF77FF92846FFF77CF92648FFF779F95D
:102660002548FFF776F92548FFF773F9244BC3F89F
:102670000090244B1D60244A2449136808680133E4
:102680001360E26A012505FA02F3034314200B608C
:1026900000FB02803946FFF76AF9FFF71DFA1C4B71
:1026A0001B6863B13368DA6AE36A9A4207D2194B4E
:1026B0004FF080521A60BFF34F8FBFF36F8F2846E1
:1026C000BDE8F88F2846FFF7CDFB4FF0FF35F6E762
:1026D0000F4B1B68002BCED13368DA6AE36A9A424B
:1026E00098BF3460C7E700BFDC3C0020443C0020BA
:1026F000083D0020283D0020543D0020403D0020A2
:10270000483C00204C3C0020EC3C0020F03C0020E9
:102710003C3D002004ED00E0503C0020F43C002053
:1027200013B5194B019300240094234680221749C6
:102730001748FFF725FF012818D100F0A7FB012853
:1027400014D14FF0500383F31188BFF36F8FBFF3A1
:102750004F8F104B4FF0FF321A600F4B18600F4B2A
:102760001C6002B0BDE81040FFF726BA013008D166
:102770004FF0500383F31188BFF36F8FBFF34F8F78
:10278000FEE702B010BD00BF1C3D0020903D0008D8
:10279000192A0008203D00203C3D0020683D002013
:1027A000024A136801331360704700BFE83C002001
:1027B000014B1868704700BF683D00202DE9F84FB5
:1027C0003C4B1B68002B53D13B4B1C6801341C60F5
:1027D000BCB93A4B1A68126842B14FF0500383F308
:1027E0001188BFF36F8FBFF34F8FFEE7344A19682C
:1027F000106818601160334A136801331360FFF7E3
:102800005DFE314D314F2B689C424FF0000B3ED3A3
:10281000DFF8A880DFF8C490D8F80020126872BBF7
:102820004FF0FF322A6032E006F1040A5046FFF70B
:10283000C1F8B16A19B106F11800FFF7BBF8F06AE8
:10284000D9F80030012202FA00F11943204BC9F8EF
:1028500000104FF0140E51460EFB0030FFF787F8C2
:102860003868F16AC26A914228BF4FF0010BD3E782
:10287000184A1368013313604FF0000B11E0D8F8C9
:102880000020D268D66871688C42CDD229603A683F
:102890000F4BD16A14224A439A58022A28BF4FF09C
:1028A000010B0D4A1268002A18BF4FF0010B584661
:1028B000BDE8F88FE83C0020683D0020483C00203F
:1028C0004C3C0020243D0020203D0020443C0020C2
:1028D000503C0020E43C00206C3D0020F03C0020F7
:1028E0002DE9F843314C236843B94FF0500383F38B
:1028F0001188BFF36F8FBFF34F8FFEE7FFF7CAF862
:102900002368013B236024682CB10024FFF7E4F81E
:102910002046BDE8F883264B1B68002BF5D0DFF876
:10292000A890244FDFF8A480D9F80030E3B90CB1A7
:10293000FFF7C4FD204D2C6844B1204E0127FFF75E
:102940003DFF00B13760013CF9D12C601B4B1B6887
:10295000002BDAD01A4B4FF080521A60BFF34F8F22
:10296000BFF36F8F0124D1E7D9F80C30DC68261D46
:1029700004F11800FFF71EF83046FFF71BF8E26A73
:102980003968012505FA02F314200B4300FB02808D
:1029900031463B60FEF7EBFF0A4BE26A1B68DB6ADD
:1029A0009A4224BF054B1D60BEE700BFE83C0020F3
:1029B000DC3C0020F03C0020E43C00206C3D00208A
:1029C00004ED00E0443C0020283D0020503C002065
:1029D00008B540B90E4B4FF080521A60BFF34F8FCD
:1029E000BFF36F8F08BD0B4B196841B14FF0500317
:1029F00083F31188BFF36F8FBFF34F8FFEE7FFF7AD
:102A0000CFFEFFF76DFDFFF76BFF0028E2D008BD9A
:102A100004ED00E0E83C002008B5174E174C236891
:102A200063B9174B1B68012BF8D9164B4FF0805236
:102A30001A60BFF34F8FBFF36F8FEFE7FFF7B0FE62
:102A40003568FFF74DFF002DE9D0FFF723F8F36855
:102A5000DD68281DFEF7AEFF0B4A1368013B1360CB
:102A60002368013B2360FFF737F8286BFFF7FAF97B
:102A70002846FFF7F7F9D2E7543D0020E03C00205C
:102A8000503C002004ED00E0DC3C0020174B1A68AD
:102A9000174B10B512B101221A6010BD1A60154B08
:102AA0001B68B3FA83F3DBB2C3F11F03142212498C
:102AB0005A4388188C5844B94FF0500383F3118857
:102AC000BFF36F8FBFF34F8FFEE74468083264682F
:102AD00044600A44944204BF62684260142202FBCC
:102AE00003135B68DA68054BD6E700BFE83C0020BB
:102AF0006C3D0020F03C0020503C0020443C002075
:102B000010B50C4640B94FF0500383F31188BFF362
:102B10006F8FBFF34F8FFEE7054B19681831FEF733
:102B200032FF20460121BDE81040FFF7D9BC00BFAD
:102B3000443C002038B50D46144640B94FF05003D0
:102B400083F31188BFF36F8FBFF34F8FFEE7074BFF
:102B500019681831FEF70BFF002C21460CBF2846E0
:102B60004FF0FF30BDE83840FFF7BABC443C0020CE
:102B700038B5C368DC6844B94FF0500383F311885B
:102B8000BFF36F8FBFF34F8FFEE704F118052846A0
:102B9000FEF710FF114B1B68E3B9251D2846FEF711
:102BA00009FF0F49E26A08680123934003430B6061
:102BB0000C4B1420294600FB0230FEF7D8FE0A4BCE
:102BC000E26A1B68DB6A9A4283BF084B01201860E7
:102BD000002038BD29460648EFE700BFE83C00204A
:102BE000F03C0020503C0020443C00206C3D002084
:102BF000283D002008B508B9FFF7B8FC034B1B6857
:102C00000360034B1B68436008BD00BF243D0020E8
:102C1000683D002038B50D46044640B94FF05003DA
:102C200083F31188BFF36F8FBFF34F8FFEE741B976
:102C30004FF0500383F31188BFF36F8FBFF34F8FB3
:102C4000FEE7FEF727FF0E4B19682B685A1C10D0C1
:102C50000C4A206812689042626801D091420DD2FD
:102C6000881A83420AD95B1A13442B602046FFF767
:102C7000C1FF0024FEF730FF204638BD0124F9E7EC
:102C8000683D0020243D0020014B01221A6070475E
:102C90006C3D0020054B1B6833B1054B1B68002BB6
:102CA0000CBF022000207047012070473C3D0020EF
:102CB000E83C00202DE9F0410446002838D01D4DA5
:102CC000C36A2A68D26A934232D282691A4E002AB3
:102CD000A1BF2A68D26AC2F1070282611427426941
:102CE00007FB03639A4220D100F104084046FEF737
:102CF00061FE124A48B9E06A4743F3592BB9136899
:102D00000121814023EA010313602B681168D86A0E
:102D1000E062012383400B4313601423414603FB0D
:102D20000060BDE8F041FEF722BE2B68DB6AC3629B
:102D3000BDE8F081443C0020503C0020F03C0020E5
:102D4000F8B5044608B90020F8BD224B1B6898422C
:102D500008D04FF0500383F31188BFF36F8FBFF398
:102D60004F8FFEE7836C43B94FF0500383F3118814
:102D7000BFF36F8FBFF34F8FFEE7C16A426C013B19
:102D800091428364DFD0002BDDD1051D2846FEF77C
:102D900011FE114E114A50B9E76A14217943735854
:102DA0002BB913680120B84023EA00031360636C59
:102DB000E362C3F10701A1611168012404FA03F081
:102DC00008431060142000FB03602946FEF7CFFD86
:102DD0002046F8BD443C0020503C0020F03C002040
:102DE000044B1A681AB119688A6C01328A6418682F
:102DF000704700BF443C0020F8B50F4CFEF74AFE78
:102E00002568ADB90D4F0E4E3846FEF7A2FD30468F
:102E1000FEF79FFD0B4B1F600B4B2A460C210A202F
:102E20001E60FFF717F9206010B10849FFF710FB8B
:102E3000BDE8F840FEF750BEA43D0020783D0020DC
:102E40008C3D0020703D0020743D0020953D000821
:102E5000914208B5416000610AD8D21A83699A424A
:102E60000DD2084B011D1868FEF78DFD002008BD2E
:102E70009A4201D2994202D2011D034BF3E701208D
:102E800008BD00BF743D0020703D002007B5FFF76E
:102E9000B3FF0D4B1B685BB10C4B019302230093F6
:102EA0004FF4807200230A490A48FFF769FB40B9D2
:102EB0004FF0500383F31188BFF36F8FBFF34F8F31
:102EC000FEE703B05DF804FBA43D0020A83D002010
:102ED0009A3D0008AD2F000830B5154685B01A465A
:102EE000034640B94FF0500383F31188BFF36F8F4F
:102EF000BFF34F8FFEE70D4C206880B1052901918B
:102F0000029503930DDCFFF7C5FE0023022808BFDE
:102F1000089A206818BF1A4601A9FFF7BDF805B046
:102F200030BD002301A9FFF76DF9F8E7A43D0020AB
:102F30002DE9F3411B4D4FF000082B681A6832B998
:102F4000194A11682960136002B0BDE8F081DB689E
:102F5000DC681E68271D3846FEF72CFD636A204694
:102F60009847E369012BE8D1A36933449E4206D216
:102F70006360246139462868FEF705FDDDE700231C
:102F8000CDF80080324619462046FFF7A5FF0028FD
:102F9000D3D14FF0500383F31188BFF36F8FBFF38A
:102FA0004F8FFEE7703D0020743D00202DE9F04F6B
:102FB0006C4DDFF8C08189B02F462B68D3F800B084
:102FC000BBF1000F42D0DB68D3F80090FFF7E8FBBD
:102FD000FFF7EEFB644B1A68904282461E4637D2DA
:102FE0000393FFF7A5FF039B0124C3F800A0002C67
:102FF0007ED1BBF1000F60D0D14577D8FFF770FCD0
:103000003B68DB68D3F80CB00BF10400FEF7D2FC90
:10301000DBF81C30012B1DD1DBF818104B46524653
:1030200049445846FFF714FFA0B1009423464A468E
:1030300021465846FFF750FF60B94FF0500383F325
:103040001188BFF36F8FBFF34F8FFEE7D946BDE7FF
:103050000024CAE7DBF8243058469847DFF810917F
:10306000D9F8000000231A4605A9FFF72DF900281A
:10307000A3D0059B002BF3DB079C636913B1201DD4
:10308000FEF798FCFFF794FB33689842834601D221
:10309000FFF74EFF059AC6F800B0092AE0D80123D1
:1030A000934013F4047A4AD113F0C70F23D19B063F
:1030B000D6D52046FEF7D6FED2E72C4B1B681A6801
:1030C000B2FA82F252092A4BA9EB0A011868FFF7FB
:1030D000D1F9FFF705FC0028C0D14FF08053C8F8A4
:1030E0000030BFF34F8FBFF36F8FB7E72246EAE799
:1030F000FFF7F6FBB2E7A169069B5A461944204642
:10310000FFF7A6FE0028ABD0636A20469847E36924
:10311000012BA5D1A2690699CDF800A00A44534617
:1031200051462046FFF7D8FE002899D14FF05003B2
:1031300083F31188BFF36F8FBFF34F8FFEE70699BC
:10314000A16141B94FF0500383F31188BFF36F8F32
:10315000BFF34F8FFEE75B465A4659442046FFF7C0
:1031600077FE7DE7703D0020A03D0020743D0020EB
:10317000A43D002004ED00E010B588B000248DF8D7
:1031800018408DF819408DF81A408DF81B408DF8C5
:103190001C408DF81D408DF81E408DF81F408DF8A5
:1031A00000408DF801408DF802408DF803408DF805
:1031B00004408DF805408DF806408DF807408DF8E5
:1031C00008408DF809408DF80A408DF80B408DF8C5
:1031D0000C408DF80D408DF80E408DF80F408DF8A5
:1031E00010408DF811408DF812408DF813408DF885
:1031F00014408DF815408DF816408DF8174000F0FA
:10320000C5F810B9002008B010BD00F031F9002851
:10321000F8D006AA2321202000F054F907AA27217C
:10322000242000F04FF96A460321204600F04AF9B5
:1032300001AA0721042000F045F902AA0B21082069
:1032400000F040F903AA1321102000F03BF904AA72
:103250001721142000F036F905AA1B21182000F0D0
:1032600031F90421602000F0E5F80121702000F020
:10327000E1F803212B2000F0DDF821462A2000F0A0
:10328000D9F8E021292000F0D5F88221282000F08B
:10329000D1F800F002F9003018BF0120B3E730B5D3
:1032A00085B0044600F034F9054610F0C00040D067
:1032B0006B0640D50D226946902000F09BF805F082
:1032C0001805102D9DF801309DF8001039D102220B
:1032D00022705A0902EBC10203F0030303EB8203DD
:1032E0009DF8022002EB03229DF8033003EB02233A
:1032F00063609DF8043023729DF8053063729DF879
:103300000630A3729DF80730E3729DF808302373EE
:103310009DF8093063739DF80A30A3739DF80B3054
:10332000E3739DF80C3023742C20002100F082F808
:10333000012005B030BD8028C1D10D2269469420FE
:10334000BBE701225B09227003EBC103D0E7000059
:1033500007B502A90A2301F8010D01220248FDF771
:10336000A3FD03B05DF804FB483E002007B50A2327
:1033700001220DF107010448FDF73BFF9DF807000E
:1033800003B05DF804FB00BF483E002038B50122C1
:103390004FF480710748084DFDF76EFA0A2428465D
:1033A000FDF7C6FF012804D0013C14F0FF04F6D15C
:1033B000204638BD00100240483E002038B50C4C75
:1033C00000224FF4807105462046FDF755FA032090
:1033D000FFF7BEFF2846FFF7BBFFFFF7C7FF01223D
:1033E00005464FF480712046FDF746FA284638BD61
:1033F00000100240F8B50D4C07460D4616464FF436
:10340000807100222046FDF737FA3846FFF7A0FF0B
:10341000324629460A230648FDF7EBFE20460122E4
:103420004FF48071BDE8F840FDF726BA0010024065
:10343000483E002070B50D4C002206460D46204641
:103440004FF48071FDF718FA0220FFF781FF304634
:10345000FFF77EFF2846FFF77BFF204601224FF44F
:103460008071BDE87040FDF707BA00BF0010024050
:1034700010B580210F20FFF7DDFF0A240E20FFF793
:103480009DFF00F0E000802805D0013C14F0FF040F
:10349000F4D1204610BD012010BD10B500210F2031
:1034A000FFF7C8FF0A240E20FFF788FF10F0E00F97
:1034B00005D0013C14F0FF04F5D1204610BD0120D9
:1034C00010BD0000F8B5104D06460C4617464FF4E7
:1034D000807100222846FDF7CFF90220FFF738FF60
:1034E0003046FFF735FF621C921B39460A23D2B2E1
:1034F0000648FDF7D9FC284601224FF48071BDE84B
:10350000F840FDF7B9B900BF00100240483E002066
:1035100038B50A4C00224FF480712046FDF7ACF913
:10352000B020FFF715FFFFF721FF012205464FF4FA
:1035300080712046FDF7A0F9284638BD00100240F2
:103540000368114A934282B00DD1002300930F4BC0
:103550005A6C42F001025A645B6C03F00103009361
:10356000009B02B070470A4A9342FAD100230193AC
:10357000064B1A6C42F004021A641B6C03F004033D
:103580000193019BEDE700BF0000014000380240BD
:10359000000800407FB50368124A934211D14FF4EE
:1035A00000730193122302930023039303230493D4
:1035B0000D480123059301A9FDF77EF807B05DF8DA
:1035C00004FB0A4A9342F9D14FF48053019312232A
:1035D000029300230393032304930223059301A979
:1035E0000348E9E7000001400010024000080040E5
:1035F000000C024030B52C4C2C4A002591B007231A
:10360000204684E82C00E5602561FEF757F818B1E4
:103610001F21274800F007FA6946234800950195C5
:10362000FEF71EF918B12621214800F0FCF92168A7
:10363000204A1D486023914202934FF000024FF050
:10364000000302A902BF0593079308930393049311
:103650000693FEF77DF818B13721154800F0E3F91D
:103660002268144B9A4212D100234FF4005209A948
:103670000D4809930A930B930C930D930E920F939D
:10368000FEF710F918B14521094800F0CCF90648B9
:10369000FFF780FF0448FDF7D4FE00210248FEF743
:1036A000C5F811B030BD00BFF03D0020000800405B
:1036B000A23D00080000014008B50120FEF737F9DF
:1036C000FBE7000007B5054C206800234FF0FF32F0
:1036D0000DF10601FEF7F8FDF6E700BF443E0020BD
:1036E00007B502AC002324F8023D074D28680023EB
:1036F0004FF0FF322146FEF7E7FD0028F6D0BDF877
:10370000060000F091F9F1E7343E002000B51A4CB4
:103710001A4D1B4E89B000234FF0FF3203A92068D9
:10372000FEF7D2FD30B1049BB3F5007F06D0B3F5B0
:10373000407F11D00120FEF7FAF8ECE79DF8152044
:103740009DF81630306808A903EB022321F81A3DD2
:1037500000231A46FEF7A0FC9DF815209DF81630B0
:10376000286808A903EB022341F8183D00231A46F4
:10377000FEF792FCDEE700BF403E0020443E002002
:10378000343E002070B5254C26460FCE94B06D46D1
:103790000FC533682B6000216846FEF7B0F8204B58
:1037A00004F1140618600FCE05AD0FC533682B6009
:1037B000002105A8FEF7A3F81A4B04F128061860AB
:1037C0000FCE0AAD0FC533682B6000210AA8FEF7A3
:1037D00096F8154B3C3418600FCC0FAD0FC523681D
:1037E0002B6000210FA8FEF78AF8104B002218600A
:1037F00014211020FEF72EFC0D4B00221860022130
:103800001020FEF727FC0B4B00221860042110202B
:10381000FEF720FC084B186014B070BD403D000856
:103820002C3E00203C3E0020383E0020303E002050
:10383000403E0020343E0020443E0020F0B58BB0D6
:103840003C4B3D4E3D4D002400941A6B42F08002EB
:103850001A631A6B02F080020092009A01941A6BAC
:1038600042F001021A631A6B02F001020192019AFE
:1038700002941A6B42F010021A631A6B02F01002E3
:103880000292029A03941A6B42F008021A631A6BAE
:1038900002F008020392039A04941A6B42F00402A5
:1038A0001A631B6B03F0040304932246304608217D
:1038B000049BFCF7E1FF284601224FF48071FCF7DE
:1038C000DBFF224628464FF48041FCF7D5FF112745
:1038D000082305A930460593012606970794089406
:1038E000FCF7EAFE4FF4807305A928460593069677
:1038F00007940896FCF7E0FE4FF48063059305A952
:103900000F4B069328460794FCF7D6FE4FF48043EE
:1039100005A928460593069707940896FCF7CCFE60
:10392000224605212820FCF765FE2820FCF796FE9C
:103930000BB0F0BD00380240000002400010024011
:103940000000211070B594B0284B002101911A6C31
:1039500042F080521A641B6C03F080530193019B68
:10396000234B02911A6842F480421A601B6803F4E8
:1039700080430293029B012308934FF48033099301
:103980004FF480030F9319230224109304264FF45D
:10399000A87308A80E94119312941396FCF77EFF57
:1039A00000B1FEE74FF4A053059006930F254FF4A6
:1039B0008053052103A8049403950793FDF712F99A
:1039C000044600B1FEE7FDF7A7F94FF47A73B0FBA8
:1039D000F3F0FCF74FFE3046FCF762FE2246294624
:1039E0004FF0FF30FCF706FE14B070BD0038024007
:1039F0000070004008B5FCF7C3FDFFF7A3FFFFF719
:103A00001DFF00F03BF8FFF7F5FDFFF7B5FBFFF7F3
:103A1000B9FEFDF76FFFFEE70368B3F1804F01D1F8
:103A2000FCF7C8BD7047FEE708B5C0B141F2C262FD
:103A30004243D3170FA1D1E90001FCF7C9FB4FF6B0
:103A4000E85380B2984228BF18463728084B38BF41
:103A50003720D8624008586381221A6008BD044BA1
:103A600042F21072DA625A63F6E700BFAFF30080E9
:103A7000000800400049D9710200000008B50F4855
:103A80000F4B4FF4827E4FF4007280E80840002311
:103A90008360C360036143618261036210224362F9
:103AA00083620A23C261C362FDF7C1F928B14F21C5
:103AB0000448BDE80840FFF7B6BF08BD483E0020F7
:103AC000003C0040EC3D00087FB50268104B9A4274
:103AD0001AD1002103F5FE3300911A6C0D4842F40F
:103AE00000421A641B6C039103F400430093009B93
:103AF0004FF4E0530193022302930323049301A99B
:103B000006230593FCF7D8FD07B05DF804FB00BF62
:103B1000003C00400008024008B50320FCF758FDB7
:103B2000002211466FF00B00FCF764FD00221146E5
:103B30006FF00A00FCF75EFD002211466FF00900ED
:103B4000FCF758FD002211466FF00400FCF752FD0F
:103B5000002211466FF00300FCF74CFD00220F21FC
:103B60006FF00100FCF746FD00220F214FF0FF30FF
:103B7000BDE80840FCF73EBD30B5014689B00022E3
:103B80001C20FCF737FD1C20FCF768FD0025154BB9
:103B900002951A6C144C42F001021A641B6C03F07B
:103BA0000103029301A903A8029BFDF7CBF8FDF7DF
:103BB000B9F84FF08043236040F2E733E360400000
:103BC0000A4BB0FBF3F00138606020462561A56028
:103BD000FDF75AFD20B92046FDF740FC09B030BD85
:103BE0000120FBE700380240A03E002040420F00C9
:103BF000FDF7A5BE0148FDF740BC00BFA03E002078
:103C00007FB501A8FFF74BFB064800231A4601A920
:103C10000068FEF741FA4FF48060FCF733FE07B00E
:103C20005DF804FB403E00200F49D1F8883043F492
:103C30007003C1F888300D4B1A68002042F0010271
:103C40001A6098601A6822F0847222F480321A6036
:103C5000074A5A601A6822F480221A60D8604FF02E
:103C600000638B60704700BF00ED00E00038024049
:103C700010300024DFF834D0002103E00C4B5B58F7
:103C8000435004310B480C4B42189A42F6D30B4A6E
:103C900002E0002342F8043B094B9A42F9D3FFF7B4
:103CA000C3FF00F011F8FFF7A5FE704700000220E7
:103CB000243E00080000002008000020080000202A
:103CC000DC3E0020FEE7000070B50D4E0D4CA41B3D
:103CD000A4100025A54209D10B4E0C4C00F024F88D
:103CE000A41BA4100025A54205D170BD56F82530AF
:103CF00098470135EEE756F8253098470135F2E749
:103D00001C3E00081C3E00081C3E0008203E000827
:103D100010B5431E0A44914200D110BD11F8014B69
:103D200003F8014FF7E70000F8B500BFF8BC08BC86
:103D30009E467047F8B500BFF8BC08BC9E46704769
:103D4000E03D0008B9360008000000000000000057
:103D500080000000D33D0008E136000800000000AC
:103D60000000000080000000C53D0008C5360008C6
:103D7000000000000000000080000000B73D0008C7
:103D80000D37000803000000000000008000000064
:103D900049444C4500546D725100546D7220537665
:103DA00063002E2E5C5372635C54494D5F6F7070DC
:103DB000736574742E630043414E626568616E647E
:103DC0006C696E670041636B65726D616E6E546104
:103DD000736B0053657474466172745461736B0045
:103DE00064656661756C745461736B002E2E5C5350
:103DF00072635C7370692E630000000000000000B5
:103E00000001020304060708090000000001020384
:043E100004000000AA
:083E14008CC4FF7F01000000D7
:043E1C00B5010008E4
:043E20009101000804
:083E2400AAAAAAAA0024F400D6
:0400000508003C753E
:00000001FF
