:020000040800F2
:1000000000000220651A0008B51A0008B51A000899
:10001000B51A0008B51A0008B51A0008000000005B
:10002000000000000000000000000000F9190008B6
:10003000B51A000800000000FB190008FD190008AF
:10004000B51A0008B51A0008B51A0008B51A000854
:10005000B51A0008B51A0008B51A0008B51A000844
:10006000B51A0008B51A0008B51A0008B51A000834
:10007000B51A0008B51A0008B51A0008B51A000824
:10008000B51A0008B51A0008B51A0008B51A000814
:10009000B51A0008B51A0008B51A0008B51A000804
:1000A000B51A0008B51A0008B51A0008B51A0008F4
:1000B000B51A0008B51A0008B51A0008B51A0008E4
:1000C000B51A0008B51A0008B51A0008B51A0008D4
:1000D000B51A0008B51A0008B51A0008B51A0008C4
:1000E000B51A0008B51A0008B51A0008B51A0008B4
:1000F000B51A0008B51A0008B51A0008B51A0008A4
:10010000B51A0008B51A0008B51A00080D1A00083B
:10011000B51A0008B51A0008B51A0008B51A000883
:10012000B51A0008B51A0008B51A0008B51A000873
:10013000B51A0008B51A0008B51A0008B51A000863
:10014000B51A0008B51A0008B51A0008B51A000853
:10015000B51A0008B51A0008B51A0008B51A000843
:10016000B51A0008B51A0008B51A0008B51A000833
:10017000B51A0008B51A0008B51A000800000000FA
:08018000B51A0008B51A0008C9
:1001880010B5054C237833B9044B13B10448AFF3C9
:1001980000800123237010BD04000020000000002F
:1001A800001B000808B5034B1BB103490348AFF314
:1001B800008008BD0000000008000020001B0008A7
:1001C80053B94AB9002908BF00281CBF4FF0FF31B6
:1001D8004FF0FF3000F07AB9ADF1080C6DE904CEAC
:1001E80000F006F8DDF804E0DDE9022304B070470A
:1001F8002DE9F0478C460D460446089E002B51D148
:100208008A4217466DD9B2FA82FEBEF1000F0BD0B2
:10021800CEF1200C01FA0EF520FA0CFC02FA0EF7CA
:100228004CEA050C00FA0EF44FEA174A250CBCFB01
:10023800FAF81FFA87F90AFB18CC45EA0C4508FBBF
:1002480009F3AB420AD9ED1908F1FF3280F0238196
:10025800AB4240F22081A8F102083D44ED1AA4B255
:10026800B5FBFAF00AFB105544EA054400FB09F90E
:10027800A14509D9E41900F1FF3380F00A81A145AD
:1002880040F2078102383C44A4EB090440EA0840E4
:100298000021002E61D024FA0EF40023346073602C
:1002A800BDE8F0878B4207D9002E54D0002186E89C
:1002B80021000846BDE8F087B3FA83F1002940F031
:1002C8008E80AB4202D3824200F2FA80841A65EB38
:1002D80003050120AC46002E3FD086E81010BDE88B
:1002E800F08712B90127B7FBF2F7B7FA87FEBEF11C
:1002F800000F34D1EB1B3A0C1FFA87FC0121B3FB2A
:10030800F2F8250C02FB183345EA03450CFB08F309
:10031800AB4207D9ED1908F1FF3002D2AB4200F227
:10032800D1808046ED1AA3B2B5FBF2F002FB10555E
:1003380043EA05440CFB00FCA44507D9E41900F185
:10034800FF3302D2A44500F2B8801846A4EB0C048F
:1003580040EA08409DE731463046BDE8F087CEF1D7
:10036800200405FA0EF307FA0EF720FA04F83A0CFF
:1003780025FA04F448EA0308B4FBF2F14FEA1845F9
:1003880002FB11441FFA87FC45EA044501FB0CF304
:10039800AB4200FA0EF409D9ED1901F1FF3080F0F3
:1003A8008A80AB4240F2878002393D44EB1A1FFA3B
:1003B80088F5B3FBF2F002FB103345EA034500FB76
:1003C8000CF3AB4207D9ED1900F1FF386FD2AB42FD
:1003D8006DD902383D44EB1A40EA01418FE7C1F17B
:1003E800200722FA07F88B4005FA01F448EA0303CC
:1003F80020FA07FE4FEA134CFD404EEA040EB5FB07
:10040800FCF94FEA1E440CFB19551FFA83F844EA1D
:10041800054509FB08F4AC4202FA01F200FA01FAB8
:1004280008D9ED1809F1FF3043D2AC4241D9A9F1FE
:1004380002091D442D1B1FFA8EFEB5FBFCF00CFBB8
:1004480010554EEA054400FB08F8A04507D9E41802
:1004580000F1FF3529D2A04527D902381C4440EACB
:100468000940A4EB0804A0FB02894C45C6464D464A
:1004780015D312D056B1BAEB0E0364EB050404FA97
:1004880007F7CB401F43CC40376074600021BDE8BC
:10049800F0871846F8E69046E0E6C245EAD2B8EB9F
:1004A800020E69EB03050138E4E72846D7E7404622
:1004B80091E78146BEE7014678E702383C4445E7C4
:1004C800084608E7A8F102083D442BE7704700BF3B
:1004D80010B5084B044618684FF47A73B0FBF3F074
:1004E80000F094F8002221464FF0FF3000F04EF85B
:1004F800002010BD0000002008B50B4B1A6842F41C
:1005080000721A601A6842F480621A601A6842F42B
:1005180080721A60032000F027F80020FFF7D8FF48
:1005280001F006FA002008BD003C0240024A1368A8
:1005380001331360704700BF20000020014B18688A
:10054800704700BF2000002037B50190FFF7F6FF85
:10055800019C631C054618BF0134FFF7EFFF401BE1
:10056800A042FAD303B030BD074AD36823F4E0634E
:100578001B041B0C43F0BF63000243F4003300F478
:10058800E0600343D360704700ED00E0174B30B5DF
:10059800DC68C4F30224C4F10703251D042B28BF1B
:1005A8000423062D4FF0010505FA03F303F1FF3389
:1005B8008CBF033C00241940A14005FA04F4013C17
:1005C8002240002842EA01024FEA0212AFBF00F1BE
:1005D800604000F00F00064BD2B2A5BF00F56140A5
:1005E800D2B21A5480F8002330BD00BF00ED00E0FD
:1005F80014ED00E04209012300F01F0003FA00F0A7
:10060800014B43F82200704700E100E00138B0F1E7
:10061800807F0AD2064B074A5860F02182F82310DF
:100628000020072298601A6070470120704700BFB9
:1006380010E000E000ED00E0044B1A6804280CBF4D
:1006480042F0040222F004021A60704710E000E051
:10065800704708B5FFF7FCFF08BD90F83530022B4E
:1006680003D080234365012070470268052380F882
:100678003530136823F00103136000207047000031
:100688002DE9F04F85B00B68DFF8AC81684ADFF8D8
:10069800AC91019300234FF0010E019C0EFA03FE6A
:1006A8000EEA0406B64540F0AE804C6824F0100708
:1006B800022F16D14FEAD30A00EB8A0A03F0070B80
:1006C800DAF820504FEA8B0B4FF00F0C0CFA0BFCAA
:1006D80025EA0C0C0D6905FA0BF545EA0C05CAF874
:1006E80020504FEA430A0325D0F800B005FA0AF56E
:1006F800ED4304F0030C0BEA050B0CFA0AFC013F6E
:100708004CEA0B0C012FC0F800C011D8876807EA23
:10071800050BCF6807FA0AFC4CEA0B0787604768A5
:1007280027EA0E0EC4F300179F4047EA0E074760FA
:10073800C7683D408F6807FA0AF73D43C560E50082
:1007480061D54FF0000BCDF80CB0D8F84470394D96
:1007580047F48047C8F84470D8F8447007F48047D5
:100768000397039F23F0030707F1804707F59C379A
:1007780003F0030CD7F808A04FEA8C0C4FF00F0ECB
:100788000EFA0CFEA8422AEA0E0E43D005F5806543
:10079800A84241D005F58065A8423FD005F580659F
:1007A800A8423DD005F58065A8423BD048453BD0DE
:1007B80005F50065A84239D005F58065A84214BF43
:1007C8000825072505FA0CF545EA0E05BD601568EC
:1007D800F74314F4803F0CBF3D403543156055681E
:1007E80014F4003F0CBF3D4035435560956814F440
:1007F800801F0CBF3D4035439560D568A40254BFA7
:100808003D403543D5600133102B7FF444AF05B02C
:10081800BDE8F08F5D46D5E70125D3E70225D1E78E
:100828000325CFE70425CDE70525CBE70625C9E74E
:10083800003C014000000240003802400014024021
:100848000AB1816170470904FBE70000F7B5044667
:1008580010B9012003B0F0BD0368D8073BD4236862
:10086800990700F1848023681E0700F1C680236879
:100878005D072AD500230193AA4BAB4D1A6C42F0B1
:1008880080521A641B6C03F080530193019B2B6800
:1008980043F480732B60FFF751FE06462B68DA0598
:1008A80040F1CD80A3689F4D012B40F0CF802B6F86
:1008B80043F001032B67FFF741FE9A4D064641F2CC
:1008C80088372B6F9B0740F1E280A269002A40F02D
:1008D800E5800020BEE7934B9A6802F00C02042AD8
:1008E80007D09A6802F00C02082A0AD15B685A02FB
:1008F80007D58C4B1B689B03B1D56368002BAED121
:10090800A7E76368874DB3F5803F11D12B6843F49F
:1009180080332B60FFF712FE824D06462B689F033B
:100928009DD4FFF70BFE801B6428F7D9032091E7BD
:10093800B3F5A02F04D12B6843F480232B60E5E79F
:100948002A6822F480322A602A6822F480222A60E7
:10095800002BDFD1FFF7F2FD06462B6898037FF5E1
:100968007EAFFFF7EBFD801B6428F6D9DEE76D4B01
:100978009A6812F00C0F07D09A6802F00C02082A45
:1009880012D15B6859020FD4664B1A68920703D5D7
:10099800E268012A7FF45DAF1A68216922F0F80243
:1009A80042EAC1021A605EE7E268604BB2B1012216
:1009B8001A60FFF7C3FD5B4D06462B689B0707D5FA
:1009C8002B68226923F0F80343EAC2032B604AE745
:1009D800FFF7B4FD801B0228EFD9A7E71A60FFF7DD
:1009E800ADFD504D06462B689F077FF53CAFFFF7DE
:1009F800A5FD801B0228F6D998E762694C4B7AB1AD
:100A080001221A60FFF79AFD464D06466B6F98075C
:100A18003FF52DAFFFF792FD801B0228F6D985E739
:100A28001A60FFF78BFD3F4D06466B6F99077FF500
:100A38001EAFFFF783FD801B0228F6D976E7FFF784
:100A48007DFD801B02287FF629AF6FE7052B04D1B7
:100A58002B6F43F004032B6729E72A6F22F001026A
:100A68002A672A6F22F004022A67002B7FF423AF3B
:100A7800FFF764FD41F2883706462B6F98077FF52C
:100A880024AFFFF75BFD801BB842F6D94EE7FFF7AE
:100A980055FD801BB8427FF614AF47E7214DAB6880
:100AA80003F00C03082B3FF4D4AE224E0023022A95
:100AB80033602AD1FFF742FD07462B6899011ED4FF
:100AC800226AE3691343626A43EA8213E26A43EAE9
:100AD8000263A26A134C5208013A43EA02436B606C
:100AE80001233360FFF72AFD054623689A013FF585
:100AF800F0AEFFF723FD401B0228F6D916E7FFF7F3
:100B08001DFDC01B0228D8D910E7FFF717FD0446C2
:100B18002B689B017FF5DDAEFFF710FD001B022857
:100B2800F6D903E700380240007000400000474251
:100B3800800E474260004742134908B58B6803F0AE
:100B48000C03042B03D0082B03D0104808BD104811
:100B580008BD4A684B68496813F4800314BF0C4801
:100B68000A48C1F3881118BF002302F03F02A1FB15
:100B78000001FFF725FB044B5B68C3F30143013316
:100B88005B00B0FBF3F008BD003802400024F4001D
:100B980040787D012DE9F0410D46044610B9012049
:100BA800BDE8F081444B1A6802F00F028A4228D34C
:100BB80021688F072DD4C80740D43F4B1A6802F02C
:100BC8000F02954266D3226851076CD4130707D5E4
:100BD8003A4A2169936823F4604343EAC103936066
:100BE800FFF7AAFF354B364A9B68C3F30313D35C60
:100BF800D840344B18600020FFF76AFC0020BDE89D
:100C0800F081CAB21A701B6803F00F039942C6D16B
:100C1800CEE72A4B11F0040F1EBF9A6842F4E05247
:100C28009A600E0742BF9A6842F460429A609A68D6
:100C3800A06822F0F00202439A60BCE762681F4B8A
:100C4800012A1DD11B6813F4003FA8D01B4EB368BE
:100C580023F003031343B360FFF770FC41F28838B5
:100C68000746B368626803F00C03B3EB820FA4D0A5
:100C7800FFF764FCC01B4045F3D90320BDE8F081B1
:100C8800911E01291B6802D813F0007FDDE713F0DD
:100C9800020FDAE7EAB21A701B6803F00F039D42ED
:100CA8007FF47DAF8FE70549E0688B6823F4E05354
:100CB80003438B608AE700BF003C024000380240D3
:100CC800181B000800000020014B1868704700BF7F
:100CD800000000202DE9F041069E0446884617468C
:100CE8001D462268936838EA03030CBF01230023DA
:100CF8009F4202D10020BDE8F0816B1CF2D055BBA9
:100D080023685A6822F0E0025A606268B2F5827F6E
:100D18000AD1A268B2F5004F02D0B2F5806F03D1B4
:100D28001A6822F040021A60A26AB2F5005F09D17F
:100D38001A6822F400521204120C1A601A6842F45B
:100D480000521A60012384F85130002384F850308F
:100D58000320BDE8F081FFF7F1FB801B8542C0D876
:100D6800CEE713B50B460092802100220446FFF718
:100D7800B1FF20B1636D43F020036365032002B027
:100D880010BD10B50446002836D00023836290F8C1
:100D9800513003F0FF021BB980F8502000F0F8FD35
:100DA8002168A068A269022384F851300B6823F0F7
:100DB80040030B6063680343E0680343206903430F
:100DC80060690343E0690343206A0343A06A03435D
:100DD80002F4007003430B60120C636A02F0040211
:100DE8001A434A60CB6923F40063CB6100200123D6
:100DF800606584F8513010BD012010BD2DE9FF4118
:100E08001E4690F85030012B04460D46904600F0DF
:100E18009C80012380F85030FFF790FB074694F838
:100E28005100C0B2012840F08E80002D4ED0B8F19C
:100E3800000F4BD0032384F8513000236365A3636C
:100E4800A4F83680A387E38763642364A3682563D3
:100E5800B3F5004F2368A4F8348002BF1A6842F43F
:100E680080421A601A6852065EBF1A6842F0400251
:100E78001A60E268B2F5006F626838D11AB1E28E82
:100E880092B2012A06D135F8022BDA60E38E013BD3
:100E98009BB2E386E38E9BB293B900973346012257
:100EA80002212046FFF716FF78B93A463146204618
:100EB800FFF757FF002838D020236365012005E09D
:100EC80023689A689007DED44EB90320012384F87A
:100ED8005130002384F8503004B0BDE8F081711C13
:100EE800D8D0FFF72BFBC01B8642D3D8EDE71AB149
:100EF800E28E92B2012A06D115F8012B1A73E38EFD
:100F0800013B9BB2E386E38E9BB2002BC5D02368DE
:100F18009A689207F0D4002ED7D0731CF3D0FFF74D
:100F28000DFBC01B8642EED8CFE7A36833B9039305
:100F38002368DA6803929B680393039B606D003013
:100F480018BF0120C2E70220C0E70220C4E72DE94C
:100F5800F043994690F8503085B0012B04460D4671
:100F680016460C9F00F0ED80012380F85030FFF703
:100F7800E5FA94F851306168DBB2012B80460AD05B
:100F8800B1F5827F40F0DB80A268002A40F0D7806C
:100F9800042B40F0D480002D4ED0002E4CD0B9F157
:100FA800000F49D094F85130A663012B04BF0523E4
:100FB80084F8513000236365236463642368A4F8CC
:100FC8003E90A4F836901A68A4F83C90500658BF92
:100FD8001A68256358BF42F04002A4F8349058BFFD
:100FE8001A60E268B2F5006F5DD119B1E28E92B273
:100FF800012A06D135F8022BDA60E38E013B9BB259
:10100800E3864FF00109E38E9BB2BBB9E38F9BB235
:10101800A3B9CDF800803B46012202212046FFF704
:1010280059FE002835D1424639462046FFF799FE39
:10103800002879D02023636501202BE0B9F1000F47
:101048000FD0E38E9BB263B123689A68910708D5E5
:1010580035F8022BDA60E38E013B9BB2E3864FF052
:101068000009E38F9BB263B123689A68D20708D559
:10107800DB6826F8023BE38F013B9BB2E3874FF026
:101088000109781CBFD0FFF759FAA0EB0800874286
:10109800B9D80320012384F85130002384F8503054
:1010A80005B0BDE8F08319B1E28E92B2012A06D1EB
:1010B80015F8012B1A73E38E013B9BB2E3864FF0C0
:1010C8000109E38E9BB21BB9E38F9BB2002BA0D022
:1010D800B9F1000F0FD0E38E9BB263B123689A6811
:1010E800910708D52A781A73E38E013B9BB2E386F1
:1010F80001354FF00009E38F9BB263B123689A680A
:10110800D20708D5DB683370E38F013B9BB2E387D6
:1011180001364FF001097B1CD3D0FFF70FFAA0EB83
:1011280008008742CDD8B4E7A368002BB2D1236862
:101138000390DA6803929B680393039BAAE7022053
:10114800A8E70220ACE72DE9F3411E464368B3F552
:10115800827F04460D4690460CD1836853B9042318
:1011680080F85130134600960A46FFF7F0FE02B0A9
:10117800BDE8F08194F85030012B00F08180012304
:1011880084F85030FFF7DAF9074694F85100C0B2F6
:10119800012873D1002D58D0B8F1000F55D0042381
:1011A80084F85130002363652363A4F83E80A38646
:1011B800E38623646364A368A563B3F5004F2368DB
:1011C800A4F83C8002BF1A6822F480421A601A68A8
:1011D80052065EBF1A6842F040021A60E368CBB15B
:1011E800E38F9BB2D3B123689A68D2073CD5DB68FA
:1011F80025F8023BE38F013B9BB2E387F0E72368C6
:101208009A68D0071FD51B7B05F8013BE38F013B8C
:101218009BB2E387E38F9BB2002BF0D16368B3F5F1
:10122800827F0BD1A368B3F5004F02D0B3F5806F6E
:1012380004D12268136823F040031360606D003006
:1012480018BF012001E03EB90320012384F8513082
:10125800002384F850308AE7711CDBD0FFF76EF961
:10126800C01B8642D6D8EFE7002EEDD0731CB7D04E
:10127800FFF764F9C01B8642B2D8E5E70220E4E72D
:10128800022074E770470000036830B559689A680F
:1012980002F04105012D85B0044605D14D0603D560
:1012A800036C984705B030BD950704D5080602D5EC
:1012B800636C2046F5E712F4B07FF3D08D06F1D5C4
:1012C80050060FD594F8510003284FF0000541D07F
:1012D800606D40F0040060650095D86800909868DB
:1012E8000090009895060CD5606D40F0010060658F
:1012F8000020029098680290186820F0400018605A
:101308000298D00508D5626D42F008026265002295
:1013180003929A680392039A626D002AC2D05A68AF
:1013280022F0E0025A60012284F851208A0718D07E
:101338005A68E06C22F003025A6018B10B4B03653F
:10134800FFF78BF9A06C0028ACD0084B0365FFF7BA
:1013580084F9A7E70195DA6801929B680193019BDC
:10136800A0E72046FFF78EFF9CE700BF791300082F
:1013780008B5806B0023C387C386FFF783FF08BDCA
:1013880090F851007047000002290C4B10D1020A56
:10139800D870000C00F00301C0009A7000F0E00261
:1013A8000A43083222F014025A70000A1870704773
:1013B800002240019A70DA705870F6E72C0000207D
:1013C80030B589B0002408258DF818408DF81940EB
:1013D8008DF81A408DF81B408DF81C408DF81D4083
:1013E8008DF81E408DF81F408DF800408DF80140A3
:1013F8008DF802408DF803408DF804408DF80550B3
:101408008DF806408DF807408DF808408DF80940A2
:101418008DF80A408DF80B408DF80C408DF80D4082
:101428008DF80E408DF80F408DF810408DF8114062
:101438008DF812408DF813408DF814408DF8155032
:101448008DF816408DF8174000F0AAF810B9002062
:1014580009B030BD00F0F6F80028F8D006AA23211C
:10146800202000F019F907AA2721242000F014F9F8
:101478006A460321204600F00FF901AA072104203B
:1014880000F00AF902AA0B21284600F005F903AA80
:101498001321102000F000F904AA1721142000F0ED
:1014A800FBF805AA1B21182000F0F6F8042160209B
:1014B80000F0AAF80121702000F0A6F821462A20A1
:1014C80000F0A2F8E021292000F09EF882212820CF
:1014D80000F09AF800F0CBF8003018BF0120B7E709
:1014E80070B51E4E0025044635707570B570F570E0
:1014F80000F03AF91A4B410718700FD42178606848
:10150800FFF742FF402004F10903227A314600F038
:10151800E9F8812000F012F9012070BDC2060CD450
:1015280021786068FFF730FF422004F10903227A2E
:10153800314600F0D7F88220ECE743060CD4217836
:101548006068FFF721FF442004F10903227A31463D
:1015580000F0C8F88420DDE7284670BD2C00002084
:101568002800002007B502A90A2301F8010D01226D
:101578000248FFF743FC03B05DF804FB300000208D
:1015880007B50A2301220DF107010448FFF7DBFD27
:101598009DF8070003B05DF804FB00BF3000002091
:1015A80038B501224FF480710748084DFFF748F914
:1015B8000A242846FFF7E4FE012804D0013C14F071
:1015C800FF04F6D1204638BD00100240300000204C
:1015D80038B50C4C00224FF4807105462046FFF7C1
:1015E8002FF90320FFF7BEFF2846FFF7BBFFFFF7E1
:1015F800C7FF012205464FF480712046FFF720F906
:10160800284638BD0010024070B50D4C0022064631
:101618000D4620464FF48071FFF712F90220FFF7BC
:10162800A1FF3046FFF79EFF2846FFF79BFF2046A5
:1016380001224FF48071BDE87040FFF701B900BF87
:101648000010024010B580210F20FFF7DDFF0A24AB
:101658000E20FFF7BDFF00F0E000802805D0013C18
:1016680014F0FF04F4D1204610BD012010BD10B5C0
:1016780000210F20FFF7C8FF0A240E20FFF7A8FF5C
:1016880010F0E00F05D0013C14F0FF04F5D120461E
:1016980010BD012010BD0000F8B5104D06460C46DF
:1016A80017464FF4807100222846FFF7C9F8022038
:1016B800FFF758FF3046FFF755FF621C921B39466B
:1016C8000A23D2B20648FFF799FB284601224FF4B5
:1016D8008071BDE8F840FFF7B3B800BF00100240C2
:1016E800300000202DE9F041124C16460546884688
:1016F80000224FF4807120461F46FFF7A1F82846C4
:101708000D4DFFF72FFF41460A2304222846FFF715
:1017180075FB3046FFF726FF3246394628460A232E
:10172800FFF76CFB204601224FF48071BDE8F041C1
:10173800FFF786B8001002403000002038B5094C89
:10174800054600224FF480712046FFF779F82846B5
:10175800FFF708FF204601224FF48071BDE83840AA
:10176800FFF76EB80010024038B50A4C00224FF45B
:1017780080712046FFF764F8A020FFF7F3FEFFF71B
:10178800FFFE012205464FF480712046FFF758F806
:10179800284638BD0010024030B595B0284B0021CE
:1017A80001911A6C42F080521A641B6C03F080534A
:1017B8000193019B234B02911A6842F480421A60FC
:1017C8001B6803F480430293029B012308934FF4A0
:1017D800803309934FF480030F9319230224109345
:1017E80004254FF4A87308A80E9411931294139526
:1017F800FFF72CF800B1FEE70F2303934FF4A05333
:101808000590069305214FF4805303A80494079389
:10181800FFF7C0F9044600B1FEE7FFF755FA4FF4A9
:101828007A73B0FBF3F0FEF7F1FE2846FEF704FFEB
:10183800224621464FF0FF30FEF7A8FE15B030BD16
:10184800003802400070004000B589B00024FEF75F
:1018580053FEFFF7A1FF314B00941A6B304842F05A
:1018680080021A631A6B02F080020092009A0194B7
:101878001A6B42F010021A631A6B02F010020192FE
:10188800019A02941A6B42F004021A631B6B03F06C
:101898000403012202934FF48071029BFEF7D0FFEC
:1018A8004FF4807303931E480594012303A90493FE
:1018B8000693FEF7E5FE1B481B4A84604FF48273CB
:1018C80080E80C004FF4007383610A251023C4607C
:1018D80004614461C361046244628462C562FFF7C3
:1018E80050FA00B1FEE7FFF76BFD104C4FF002060F
:1018F800082323720D482670002365606372A37263
:10190800E37223736373A373E3732374FFF7E8FD30
:101918004FF47A70FEF718FEEAE700BF003802407D
:101928000010024030000020003C004088000020E9
:1019380008B50320FEF718FE002211466FF00B00D1
:10194800FEF724FE002211466FF00A00FEF71EFE85
:10195800002211466FF00900FEF718FE002211461A
:101968006FF00400FEF712FE002211466FF003002C
:10197800FEF70CFE002211466FF00100FEF706FE8E
:10198800002211464FF0FF30BDE80840FEF7FEBDCB
:1019980010B50268144B9A4286B022D1002403F590
:1019A800FE3300941A6C114842F400421A641B6C0E
:1019B800039403F400430093009B4FF4E053019316
:1019C800022302930323049301A906230593FEF738
:1019D80057FE332022462146FEF7D8FD3320FEF776
:1019E80009FE06B010BD00BF003C004000080240E0
:1019F8007047704708B5FEF799FDBDE80840FEF747
:101A080028BE00000148FFF73FBC00BF300000209F
:101A18000F49D1F8883043F47003C1F888300D4B72
:101A28001A68002042F001021A6098601A6822F0D1
:101A3800847222F480321A60074A5A601A6822F4C3
:101A480080221A60D8604FF000638B60704700BF37
:101A580000ED00E00038024010300024DFF834D0F8
:101A6800002103E00C4B5B58435004310B480C4BEE
:101A780042189A42F6D30B4A02E0002342F8043B8C
:101A8800094B9A42F9D3FFF7C3FF00F011F8FFF7AB
:101A9800DBFE704700000220381B00080000002011
:101AA8000400002004000020B0000020FEE7000031
:101AB80070B50D4E0D4CA41BA4100025A54209D1EC
:101AC8000B4E0C4C00F018F8A41BA4100025A542DE
:101AD80005D170BD56F8253098470135EEE756F820
:101AE800253098470135F2E7301B0008301B000805
:101AF800301B0008341B0008F8B500BFF8BC08BC50
:101B08009E467047F8B500BFF8BC08BC9E467047B3
:101B18000000000000000000010203040607080995
:081B2800D0E6FF7F0100000080
:041B3000AD010008FB
:041B3400890100081B
:041B38000024F40091
:0400000508001A6570
:00000001FF
