:020000040800F2
:1000000000000220211F0008711F0008711F000856
:10001000711F0008711F0008711F00080000000018
:10002000000000000000000000000000B11D0008FA
:10003000711F000800000000B31D0008B51D000876
:10004000711F0008711F0008711F0008711F000850
:10005000711F0008711F0008711F0008711F000840
:10006000711F0008711F0008711F0008711F000830
:10007000711F0008711F0008711F0008711F000820
:10008000711F0008711F0008711F0008711F000810
:10009000711F0008711F0008711F0008711F000800
:1000A000711F0008711F0008711F0008711F0008F0
:1000B000711F0008711F0008711F0008711F0008E0
:1000C000711F0008711F0008711F0008711F0008D0
:1000D000711F0008711F0008711F0008711F0008C0
:1000E000C31D0008711F0008711F0008711F000860
:1000F000711F0008711F0008711F0008711F0008A0
:10010000711F0008711F0008711F0008711F00088F
:10011000711F0008711F0008711F0008711F00087F
:10012000711F0008711F0008711F0008711F00086F
:10013000711F0008711F0008711F0008711F00085F
:10014000711F0008711F0008711F0008711F00084F
:10015000711F0008711F0008711F0008711F00083F
:10016000711F0008711F0008711F0008711F00082F
:10017000711F0008711F0008711F000800000000B7
:08018000711F0008711F000847
:1001880010B5054C237833B9044B13B10448AFF3C9
:1001980000800123237010BD04000020000000002F
:1001A800BC1F000808B5034B1BB103490348AFF354
:1001B800008008BD0000000008000020BC1F0008E7
:1001C80053B94AB9002908BF00281CBF4FF0FF31B6
:1001D8004FF0FF3000F07AB9ADF1080C6DE904CEAC
:1001E80000F006F8DDF804E0DDE9022304B070470A
:1001F8002DE9F0478C460D460446089E002B51D148
:100208008A4217466DD9B2FA82FEBEF1000F0BD0B2
:10021800CEF1200C01FA0EF520FA0CFC02FA0EF7CA
:100228004CEA050C00FA0EF44FEA174A250CBCFB01
:10023800FAF81FFA87F90AFB18CC45EA0C4508FBBF
:1002480009F3AB420AD9ED1908F1FF3280F0238196
:10025800AB4240F22081A8F102083D44ED1AA4B255
:10026800B5FBFAF00AFB105544EA054400FB09F90E
:10027800A14509D9E41900F1FF3380F00A81A145AD
:1002880040F2078102383C44A4EB090440EA0840E4
:100298000021002E61D024FA0EF40023346073602C
:1002A800BDE8F0878B4207D9002E54D0002186E89C
:1002B80021000846BDE8F087B3FA83F1002940F031
:1002C8008E80AB4202D3824200F2FA80841A65EB38
:1002D80003050120AC46002E3FD086E81010BDE88B
:1002E800F08712B90127B7FBF2F7B7FA87FEBEF11C
:1002F800000F34D1EB1B3A0C1FFA87FC0121B3FB2A
:10030800F2F8250C02FB183345EA03450CFB08F309
:10031800AB4207D9ED1908F1FF3002D2AB4200F227
:10032800D1808046ED1AA3B2B5FBF2F002FB10555E
:1003380043EA05440CFB00FCA44507D9E41900F185
:10034800FF3302D2A44500F2B8801846A4EB0C048F
:1003580040EA08409DE731463046BDE8F087CEF1D7
:10036800200405FA0EF307FA0EF720FA04F83A0CFF
:1003780025FA04F448EA0308B4FBF2F14FEA1845F9
:1003880002FB11441FFA87FC45EA044501FB0CF304
:10039800AB4200FA0EF409D9ED1901F1FF3080F0F3
:1003A8008A80AB4240F2878002393D44EB1A1FFA3B
:1003B80088F5B3FBF2F002FB103345EA034500FB76
:1003C8000CF3AB4207D9ED1900F1FF386FD2AB42FD
:1003D8006DD902383D44EB1A40EA01418FE7C1F17B
:1003E800200722FA07F88B4005FA01F448EA0303CC
:1003F80020FA07FE4FEA134CFD404EEA040EB5FB07
:10040800FCF94FEA1E440CFB19551FFA83F844EA1D
:10041800054509FB08F4AC4202FA01F200FA01FAB8
:1004280008D9ED1809F1FF3043D2AC4241D9A9F1FE
:1004380002091D442D1B1FFA8EFEB5FBFCF00CFBB8
:1004480010554EEA054400FB08F8A04507D9E41802
:1004580000F1FF3529D2A04527D902381C4440EACB
:100468000940A4EB0804A0FB02894C45C6464D464A
:1004780015D312D056B1BAEB0E0364EB050404FA97
:1004880007F7CB401F43CC40376074600021BDE8BC
:10049800F0871846F8E69046E0E6C245EAD2B8EB9F
:1004A800020E69EB03050138E4E72846D7E7404622
:1004B80091E78146BEE7014678E702383C4445E7C4
:1004C800084608E7A8F102083D442BE7704700BF3B
:1004D80010B5084B044618684FF47A73B0FBF3F074
:1004E80000F084F8002221464FF0FF3000F03EF87B
:1004F800002010BD0000002008B50B4B1A6842F41C
:1005080000721A601A6842F480621A601A6842F42B
:1005180080721A60032000F017F80020FFF7D8FF58
:1005280001F012FC002008BD003C0240024A13689A
:1005380001331360704700BF20000020014B18688A
:10054800704700BF20000020074AD36823F4E06307
:100558001B041B0C43F0BF63000243F4003300F498
:10056800E0600343D360704700ED00E0174B30B5FF
:10057800DC68C4F30224C4F10703251D042B28BF3B
:100588000423062D4FF0010505FA03F303F1FF33A9
:100598008CBF033C00241940A14005FA04F4013C37
:1005A8002240002842EA01024FEA0212AFBF00F1DE
:1005B800604000F00F00064BD2B2A5BF00F56140C5
:1005C800D2B21A5480F8002330BD00BF00ED00E01D
:1005D80014ED00E04209012300F01F0003FA00F0C7
:1005E800014B43F82200704700E100E00138B0F108
:1005F800807F0AD2064B074A5860F02182F8231000
:100608000020072298601A6070470120704700BFD9
:1006180010E000E000ED00E0044B1A6804280CBF6D
:1006280042F0040222F004021A60704710E000E071
:10063800704708B5FFF7FCFF08BD00002DE9F04F33
:1006480085B00B68DFF8AC81684ADFF8AC9101939C
:1006580000234FF0010E019C0EFA03FE0EEA040679
:10066800B64540F0AE804C6824F01007022F16D132
:100678004FEAD30A00EB8A0A03F0070BDAF8205096
:100688004FEA8B0B4FF00F0C0CFA0BFC25EA0C0C05
:100698000D6905FA0BF545EA0C05CAF820504FEA32
:1006A800430A0325D0F800B005FA0AF5ED4304F033
:1006B800030C0BEA050B0CFA0AFC013F4CEA0B0C85
:1006C800012FC0F800C011D8876807EA050BCF686A
:1006D80007FA0AFC4CEA0B078760476827EA0E0E00
:1006E800C4F300179F4047EA0E074760C7683D40BC
:1006F8008F6807FA0AF73D43C560E50061D54FF0FA
:10070800000BCDF80CB0D8F84470394D47F4804749
:10071800C8F84470D8F8447007F480470397039FDB
:1007280023F0030707F1804707F59C3703F0030C14
:10073800D7F808A04FEA8C0C4FF00F0E0EFA0CFEFB
:10074800A8422AEA0E0E43D005F58065A84241D09A
:1007580005F58065A8423FD005F58065A8423DD0E3
:1007680005F58065A8423BD048453BD005F50065B6
:10077800A84239D005F58065A84214BF0825072589
:1007880005FA0CF545EA0E05BD601568F74314F443
:10079800803F0CBF3D4035431560556814F4003F59
:1007A8000CBF3D4035435560956814F4801F0CBF5D
:1007B8003D4035439560D568A40254BF3D4035435C
:1007C800D5600133102B7FF444AF05B0BDE8F08F3E
:1007D8005D46D5E70125D3E70225D1E70325CFE715
:1007E8000425CDE70525CBE70625C9E7003C0140F0
:1007F8000000024000380240001402400AB1816142
:1008080070470904FBE7704708B5044B5969014272
:1008180002D05861FFF7F7FF08BD00BF003C014058
:10082800F7B5044610B9012003B0F0BD0368D80736
:100838003BD42368990700F1848023681E0700F1E0
:10084800C68023685D072AD500230193AA4BAB4DC8
:100858001A6C42F080521A641B6C03F080530193A7
:10086800019B2B6843F480732B60FFF767FE0646F5
:100878002B68DA0540F1CD80A3689F4D012B40F02D
:10088800CF802B6F43F001032B67FFF757FE9A4D7C
:10089800064641F288372B6F9B0740F1E280A26938
:1008A800002A40F0E5800020BEE7934B9A6802F0EA
:1008B8000C02042A07D09A6802F00C02082A0AD10E
:1008C8005B685A0207D58C4B1B689B03B1D56368DC
:1008D800002BAED1A7E76368874DB3F5803F11D1F0
:1008E8002B6843F480332B60FFF728FE824D0646C1
:1008F8002B689F039DD4FFF721FE801B6428F7D93E
:10090800032091E7B3F5A02F04D12B6843F480238B
:100918002B60E5E72A6822F480322A602A6822F4EC
:1009280080222A60002BDFD1FFF708FE06462B68DD
:1009380098037FF57EAFFFF701FE801B6428F6D988
:10094800DEE76D4B9A6812F00C0F07D09A6802F038
:100958000C02082A12D15B6859020FD4664B1A6838
:10096800920703D5E268012A7FF45DAF1A6821690E
:1009780022F0F80242EAC1021A605EE7E268604BC0
:10098800B2B101221A60FFF7D9FD5B4D06462B680C
:100998009B0707D52B68226923F0F80343EAC203B3
:1009A8002B604AE7FFF7CAFD801B0228EFD9A7E7AB
:1009B8001A60FFF7C3FD504D06462B689F077FF569
:1009C8003CAFFFF7BBFD801B0228F6D998E76269A8
:1009D8004C4B7AB101221A60FFF7B0FD464D06462E
:1009E8006B6F98073FF52DAFFFF7A8FD801B022816
:1009F800F6D985E71A60FFF7A1FD3F4D06466B6FF4
:100A080099077FF51EAFFFF799FD801B0228F6D9DD
:100A180076E7FFF793FD801B02287FF629AF6FE783
:100A2800052B04D12B6F43F004032B6729E72A6FAA
:100A380022F001022A672A6F22F004022A67002B9B
:100A48007FF423AFFFF77AFD41F2883706462B6F14
:100A580098077FF524AFFFF771FD801BB842F6D9E0
:100A68004EE7FFF76BFD801BB8427FF614AF47E7F0
:100A7800214DAB6803F00C03082B3FF4D4AE224E93
:100A88000023022A33602AD1FFF758FD07462B6856
:100A980099011ED4226AE3691343626A43EA821306
:100AA800E26A43EA0263A26A134C5208013A43EA33
:100AB80002436B6001233360FFF740FD054623685E
:100AC8009A013FF5F0AEFFF739FD401B0228F6D931
:100AD80016E7FFF733FDC01B0228D8D910E7FFF748
:100AE8002DFD04462B689B017FF5DDAEFFF726FD43
:100AF800001B0228F6D903E70038024000700040C6
:100B080000004742800E474260004742134908B53B
:100B18008B6803F00C03042B03D0082B03D0104878
:100B280008BD104808BD4A684B68496813F480033B
:100B380014BF0C480A48C1F3881118BF002302F0FB
:100B48003F02A1FB0001FFF73BFB044B5B68C3F3CB
:100B5800014301335B00B0FBF3F008BD00380240ED
:100B68000024F40040787D012DE9F0410D4604464B
:100B780010B90120BDE8F081444B1A6802F00F0259
:100B88008A4228D321688F072DD4C80740D43F4B09
:100B98001A6802F00F02954266D3226851076CD496
:100BA800130707D53A4A2169936823F4604343EA57
:100BB800C1039360FFF7AAFF354B364A9B68C3F31E
:100BC8000313D35CD840344B18600020FFF780FC37
:100BD8000020BDE8F081CAB21A701B6803F00F0349
:100BE8009942C6D1CEE72A4B11F0040F1EBF9A686E
:100BF80042F4E0529A600E0742BF9A6842F460429B
:100C08009A609A68A06822F0F00202439A60BCE7F2
:100C180062681F4B012A1DD11B6813F4003FA8D03E
:100C28001B4EB36823F003031343B360FFF786FC3E
:100C380041F288380746B368626803F00C03B3EBE7
:100C4800820FA4D0FFF77AFCC01B4045F3D90320DC
:100C5800BDE8F081911E01291B6802D813F0007FBE
:100C6800DDE713F0020FDAE7EAB21A701B6803F047
:100C78000F039D427FF47DAF8FE70549E0688B68DD
:100C880023F4E05303438B608AE700BF003C024033
:100C980000380240E11F000800000020014B1868DE
:100CA800704700BF000000202DE9F041069E044671
:100CB800884617461D462268936838EA03030CBF26
:100CC800012300239F4202D10020BDE8F0816B1C64
:100CD800F2D055BB23685A6822F0E0025A60626875
:100CE800B2F5827F0AD1A268B2F5004F02D0B2F500
:100CF800806F03D11A6822F040021A60A26AB2F526
:100D0800005F09D11A6822F400521204120C1A600A
:100D18001A6842F400521A60012384F85130002303
:100D280084F850300320BDE8F081FFF707FC801BF2
:100D38008542C0D8CEE713B50B4600928021002229
:100D48000446FFF7B1FF20B1636D43F020036365EC
:100D5800032002B010BD10B50446002836D0002389
:100D6800836290F8513003F0FF021BB980F85020DD
:100D780000F0C2FF2168A068A269022384F85130FC
:100D88000B6823F040030B6063680343E068034388
:100D98002069034360690343E0690343206A03430E
:100DA800A06A034302F4007003430B60120C636AE9
:100DB80002F004021A434A60CB6923F40063CB6152
:100DC80000200123606584F8513010BD012010BD5A
:100DD8002DE9FF411E4690F85030012B04460D4680
:100DE800904600F09C80012380F85030FFF7A6FB66
:100DF800074694F85100C0B2012840F08E80002DBB
:100E08004ED0B8F1000F4BD0032384F851300023A3
:100E18006365A363A4F83680A387E38763642364C8
:100E2800A3682563B3F5004F2368A4F8348002BF94
:100E38001A6842F480421A601A6852065EBF1A683D
:100E480042F040021A60E268B2F5006F626838D179
:100E58001AB1E28E92B2012A06D135F8022BDA6075
:100E6800E38E013B9BB2E386E38E9BB293B9009776
:100E78003346012202212046FFF716FF78B93A4689
:100E880031462046FFF757FF002838D020236365F6
:100E9800012005E023689A689007DED44EB9032044
:100EA800012384F85130002384F8503004B0BDE8A1
:100EB800F081711CD8D0FFF741FBC01B8642D3D804
:100EC800EDE71AB1E28E92B2012A06D115F8012B8C
:100ED8001A73E38E013B9BB2E386E38E9BB2002B31
:100EE800C5D023689A689207F0D4002ED7D0731C17
:100EF800F3D0FFF723FBC01B8642EED8CFE7A368E9
:100F080033B903932368DA6803929B680393039BBE
:100F1800606D003018BF0120C2E70220C0E7022040
:100F2800C4E72DE9F043994690F8503085B0012B7D
:100F380004460D4616460C9F00F0ED80012380F80C
:100F48005030FFF7FBFA94F851306168DBB2012B9F
:100F580080460AD0B1F5827F40F0DB80A268002A83
:100F680040F0D780042B40F0D480002D4ED0002EC6
:100F78004CD0B9F1000F49D094F85130A663012B39
:100F880004BF052384F85130002363652364636438
:100F98002368A4F83E90A4F836901A68A4F83C9008
:100FA800500658BF1A68256358BF42F04002A4F89B
:100FB800349058BF1A60E268B2F5006F5DD119B17C
:100FC800E28E92B2012A06D135F8022BDA60E38E5E
:100FD800013B9BB2E3864FF00109E38E9BB2BBB99C
:100FE800E38F9BB2A3B9CDF800803B4601220221D2
:100FF8002046FFF759FE002835D14246394620469B
:10100800FFF799FE002879D02023636501202BE0A3
:10101800B9F1000F0FD0E38E9BB263B123689A68D1
:10102800910708D535F8022BDA60E38E013B9BB2B5
:10103800E3864FF00009E38F9BB263B123689A6897
:10104800D20708D5DB6826F8023BE38F013B9BB249
:10105800E3874FF00109781CBFD0FFF76FFAA0EBC8
:1010680008008742B9D80320012384F851300023AF
:1010780084F8503005B0BDE8F08319B1E28E92B221
:10108800012A06D115F8012B1A73E38E013B9BB296
:10109800E3864FF00109E38E9BB21BB9E38F9BB245
:1010A800002BA0D0B9F1000F0FD0E38E9BB263B133
:1010B80023689A68910708D52A781A73E38E013B4A
:1010C8009BB2E38601354FF00009E38F9BB263B111
:1010D80023689A68D20708D5DB683370E38F013B31
:1010E8009BB2E38701364FF001097B1CD3D0FFF791
:1010F80025FAA0EB08008742CDD8B4E7A368002BF7
:10110800B2D123680390DA6803929B680393039B28
:10111800AAE70220A8E70220ACE72DE9F3411E4622
:101128004368B3F5827F04460D4690460CD1836828
:1011380053B9042380F85130134600960A46FFF746
:10114800F0FE02B0BDE8F08194F85030012B00F0B9
:101158008180012384F85030FFF7F0F9074694F8AE
:101168005100C0B2012873D1002D58D0B8F1000F3A
:1011780055D0042384F85130002363652363A4F811
:101188003E80A386E38623646364A368A563B3F5FE
:10119800004F2368A4F83C8002BF1A6822F48042FA
:1011A8001A601A6852065EBF1A6842F040021A6056
:1011B800E368CBB1E38F9BB2D3B123689A68D207B7
:1011C8003CD5DB6825F8023BE38F013B9BB2E38704
:1011D800F0E723689A68D0071FD51B7B05F8013B09
:1011E800E38F013B9BB2E387E38F9BB2002BF0D1E7
:1011F8006368B3F5827F0BD1A368B3F5004F02D0C3
:10120800B3F5806F04D12268136823F0400313609C
:10121800606D003018BF012001E03EB903200123B2
:1012280084F85130002384F850308AE7711CDBD0F1
:10123800FFF784F9C01B8642D6D8EFE7002EEDD021
:10124800731CB7D0FFF77AF9C01B8642B2D8E5E71E
:101258000220E4E7022074E790F85100704700008C
:10126800036A23F001030362036A426870B5846964
:101278000D6824F0730425438C6823F0020323438C
:101288000C4CA04209D004F58064A04205D042600D
:101298004A6885614263036270BDCC688E6923F039
:1012A800080323434C6922F44072344323F00403B7
:1012B8002243ECE700000140036A23F480730362D1
:1012C800036A426870B5C4690D6824F07304254345
:1012D8008C6823F4007343EA04230E4CA04209D01F
:1012E80004F58064A04205D042604A68C561C263C3
:1012F800036270BDCC688E6923F4006343EA04235B
:101308004C6922F44052344323F4806342EA0412C5
:10131800EAE700BF00000140036A23F48053036238
:1013280030B5046A4368C2690D6822F4E64242EAAD
:1013380005228D6824F4005444EA0534094DA84276
:1013480009D005F58065A84205D043604B68C261A5
:101358000364046230BD4D6923F4804343EA851376
:10136800F3E700BF000001400268022380F839302B
:10137800136843F001031360012380F8393000201B
:101388007047704790F83830012B70B54FF0020362
:101398001CD080F839300368012280F838209A6818
:1013A80022F47F4222F077029A600A68402A79D0B4
:1013B80019D8102A00F093800AD8002A00F08980F2
:1013C800012380F83930002380F83830184670BD82
:1013D800202A00F08A80302AF2D19A6822F070021E
:1013E80042F0370236E0702A36D01BD8502A42D055
:1013F800602AE5D11C6A4D68CE6824F010041C628E
:1014080099691A6A21F4704122F0A00242EA051291
:1014180041EA063199611A629A6822F0700242F034
:10142800670217E0B2F5805F11D0B2F5005FC7D14F
:101438008A684D689C68C9682A4324F47F4442EA54
:10144800012222439A609A6842F4804202E09A6834
:1014580022F007029A60B3E78A684D689C68C968F9
:101468002A4324F47F4442EA012222439A609A687C
:1014780042F07702EEE74C68CE68196A1D6A25F0DB
:1014880001051D629A6921F00A0122F0F00242EA80
:10149800061221439A6119629A6822F0700242F09A
:1014A8005702D7E74C68CE68196A1D6A25F001050E
:1014B8001D629A6921F00A0122F0F00242EA06123E
:1014C80021439A6119629A6822F0700242F0470239
:1014D800C0E79A6822F0700242F00702BAE79A68F9
:1014E80022F0700242F01702B4E79A6822F0700204
:1014F80042F02702AEE700002E4A0368904212D05D
:10150800B0F1804F0FD0A2F57C4290420BD002F58B
:101518008062904207D002F58062904203D002F5C3
:10152800784290421DD14A6823F070031343214A40
:10153800904204D1CA6823F44073134328E0B0F101
:10154800804FF7D01C4A9042F4D002F58062904256
:10155800F0D002F580629042ECD002F578429042D9
:10156800E8D0164A9042E5D002F580629042E1D078
:1015780002F580629042DDD0A2F598329042D9D02F
:1015880002F580629042D5D002F580629042D1D0B7
:1015980003608B68C3620B688362064B984206D06F
:1015A80003F58063984202D00123436170470B69B9
:1015B8000363F9E7000001400004004000400140D7
:1015C80010B50446A0B190F8393003F0FF021BB9FA
:1015D80080F8382000F01CFC022384F83930206899
:1015E800211DFFF789FF012384F83930002010BD41
:1015F800012010BD10B50446A0B190F8393003F0B1
:10160800FF021BB980F83820FFF7BBFE022384F8DD
:1016180039302068211DFFF76FFF012384F8393026
:10162800002010BD012010BD036A23F010030362DF
:10163800036A426870B584690D6824F4E64444EA94
:1016480005258C6823F0200343EA04130D4CA042BF
:1016580009D004F58064A04205D042604A688561DB
:101668008263036270BDCC688E6923F0800343EA0D
:1016780004134C6922F44062344323F0400342EAE5
:101688008402EAE70000014038B590F83830012BB1
:1016980004464FF0020025D0012384F8383084F83E
:1016A80039000C2A18D8DFE802F0071717171E1799
:1016B80017172F17171740002068FFF7D1FD236869
:1016C80009699A6942F008029A619A6922F004024B
:1016D8009A619A690A439A610123002084F8393093
:1016E80084F8380038BD2068FFF79EFF2368096931
:1016F8009A6942F400629A619A6922F480629A6156
:101708009A6942EA0122E6E72068FFF7D5FD2368D7
:101718000969DA6942F00802DA61DA6922F004023A
:10172800DA61DA690A43DA61D6E72068FFF7F4FD7F
:1017380023680969DA6942F40062DA61DA6922F435
:101748008062DA61DA6942EA0122ECE7036A10B5DD
:1017580001248C4023EA04030362036A8A401A4383
:10176800026210BD10B5044601220068FFF7EEFFC3
:101778002368084A934203D002F58062934203D15A
:101788005A6C42F400425A641A6842F001021A6024
:10179800002010BD0000014090F83830012B10B532
:1017A8004FF0020318D080F8393003680C685A6883
:1017B800496822F070025A605A6822435A609A684F
:1017C80022F080029A609A680A439A60012380F89E
:1017D8003930002380F83830184610BD10B588B06D
:1017E80000248DF818408DF819408DF81A408DF8AE
:1017F8001B408DF81C408DF81D408DF81E408DF85B
:101808001F408DF800408DF801408DF802408DF89A
:1018180003408DF804408DF805408DF806408DF89A
:1018280007408DF808408DF809408DF80A408DF87A
:101838000B408DF80C408DF80D408DF80E408DF85A
:101848000F408DF810408DF811408DF812408DF83A
:1018580013408DF814408DF815408DF816408DF81A
:10186800174000F06DF810B9002008B010BD00F066
:10187800B9F80028F8D006AA2321202000F0DCF8C7
:1018880007AA2721242000F0D7F86A46032120461A
:1018980000F0D2F801AA0721042000F0CDF802AA2E
:1018A8000B21082000F0C8F803AA1321102000F02B
:1018B800C3F804AA1721142000F0BEF805AA1B21BA
:1018C800182000F0B9F80421602000F06DF801211B
:1018D800702000F069F803212B2000F065F82146FC
:1018E8002A2000F061F8E021292000F05DF882212B
:1018F800282000F059F800F08AF8003018BF0120BD
:10190800B3E7000007B502A90A2301F8010D012277
:101918000248FFF75DFA03B05DF804FB8C00002075
:1019280007B50A2301220DF107010448FFF7F5FB6B
:101938009DF8070003B05DF804FB00BF8C00002091
:1019480038B501224FF480710748084DFEF756FF5D
:101958000A242846FFF780FC012804D0013C14F033
:10196800FF04F6D1204638BD001002408C0000204C
:1019780038B50C4C00224FF4807105462046FEF71E
:101988003DFF0320FFF7BEFF2846FFF7BBFFFFF729
:10199800C7FF012205464FF480712046FEF72EFF4F
:1019A800284638BD0010024070B50D4C002206468E
:1019B8000D4620464FF48071FEF720FF0220FFF706
:1019C800A1FF3046FFF79EFF2846FFF79BFF204602
:1019D80001224FF48071BDE87040FEF70FBF00BFD1
:1019E8000010024010B580210F20FFF7DDFF0A2408
:1019F8000E20FFF7BDFF00F0E000802805D0013C75
:101A080014F0FF04F4D1204610BD012010BD10B51C
:101A180000210F20FFF7C8FF0A240E20FFF7A8FFB8
:101A280010F0E00F05D0013C14F0FF04F5D120467A
:101A380010BD012010BD0000F8B5104D06460C463B
:101A480017464FF4807100222846FEF7D7FE022081
:101A5800FFF758FF3046FFF755FF621C921B3946C7
:101A68000A23D2B20648FFF7B3F9284601224FF4F9
:101A78008071BDE8F840FEF7C1BE00BF001002400B
:101A88008C000020F0B58DB0414B424E424D0024F1
:101A980001941A6B42F080021A631A6B02F08002FA
:101AA8000192019A02941A6B42F001021A631A6BAE
:101AB80002F001020292029A03941A6B42F0100299
:101AC8001A631A6B02F010020392039A04941A6BB9
:101AD80042F008021A631A6B02F008020492049A90
:101AE80005941A6B42F004021A631A6B02F004029E
:101AF8000592059A06941A6B42F002021A631B6B50
:101B080003F002030693224630460821069BFEF79F
:101B180075FE284601224FF48071FEF76FFE2246BB
:101B280028464FF48041FEF769FE1127082307A9CC
:101B3800304607930126089709940A94FEF77EFD1C
:101B48004FF4807307A928460793089609940A96C4
:101B5800FEF774FD4FF48063079307A90F4B0893B2
:101B680028460994FEF76AFD4FF4804307A92846E2
:101B78000793089709940A96FEF760FD22462146C6
:101B88002820FEF7F3FC2820FEF724FD0DB0F0BD59
:101B980000380240000002400010024000002110FE
:101BA80030B595B0284B002101911A6C42F0805253
:101BB8001A641B6C03F080530193019B234B029121
:101BC8001A6842F480421A601B6803F48043029347
:101BD800029B012308934FF4803309934FF4800349
:101BE8000F9319230224109304254FF4A87308A80F
:101BF8000E94119312941395FEF712FE00B1FEE7AE
:101C08000F2303934FF4A0530590069305214FF437
:101C1800805303A804940793FEF7A6FF044600B177
:101C2800FEE7FFF73BF84FF47A73B0FBF3F0FEF7EB
:101C3800DDFC2846FEF7F0FC224621464FF0FF3037
:101C4800FEF794FC15B030BD00380240007000402B
:101C580010B5124CFEF750FCFFF7A2FFFFF712FF7A
:101C680000F024F800F008F9FFF7B8FD4FF4D0436E
:101C7800E3610B48FFF778FB00210948FFF772FD85
:101C8800012208210748FEF7B9FD4FF4FA43E36241
:101C98004FF47A53636381232360FEE70008004012
:101CA8002400002000000240FEE7000008B50F48AD
:101CB8000F4B4FF4827E4FF4007280E808400023F7
:101CC8008360C360036143618261036210224362DF
:101CD80083620A23C261C362FFF73DF828B1442139
:101CE8000448BDE80840FFF7DFBF08BD8C000020AE
:101CF800003C0040D41F00087FB50268104B9A4290
:101D08001AD1002103F5FE3300911A6C0D4842F4F4
:101D180000421A641B6C039103F400430093009B78
:101D28004FF4E0530193022302930323049301A980
:101D380006230593FEF782FC07B05DF804FB00BF9D
:101D4800003C00400008024008B50320FEF7FCFBF9
:101D5800002211466FF00B00FEF708FC0022114626
:101D68006FF00A00FEF702FC002211466FF009002E
:101D7800FEF7FCFB002211466FF00400FEF7F6FBAD
:101D8800002211466FF00300FEF7F0FB0022114617
:101D98006FF00100FEF7EAFB002211464FF0FF301A
:101DA800BDE80840FEF7E2BB7047704708B5FEF78C
:101DB800BDFBBDE80840FEF73CBC4FF48060FEF771
:101DC80023BD00000F49D1F8883043F47003C1F8EF
:101DD80088300D4B1A68002042F001021A609860A2
:101DE8001A6822F0847222F480321A60074A5A6014
:101DF8001A6822F480221A60D8604FF000638B6062
:101E0800704700BF00ED00E00038024010300024A9
:101E18000268094B9A4282B00BD100230193074B09
:101E28001A6C42F004021A641B6C03F00403019359
:101E3800019B02B0704700BF000800400038024014
:101E48007FB502680A4B9A420ED14FF48053019332
:101E580012230293002303930123049301A902236D
:101E680004480593FEF7EAFB07B05DF804FB00BFE2
:101E780000080040000C024000B52448244B4FF0F5
:101E8800070E8FB080E8084000238360C3600361B9
:101E9800FFF796FB18B140211E48FFF705FF0EA972
:101EA8004FF4805341F82C3D1848FFF76BFA18B1EE
:101EB80046211848FFF7F8FE1448FFF79BFB18B1B6
:101EC8004B211448FFF7F0FE002301A90F480193A6
:101ED8000293FFF761FC18B152210E48FFF7E4FEA8
:101EE8000022602307A909480793089209920B92D8
:101EF800FFF7CAFB18B15B210648FFF7D5FE034878
:101F0800FFF79EFF0FB05DF804FB00BF2400002020
:101F180000080040F11F0008DFF834D0002103E07A
:101F28000C4B5B58435004310B480C4B42189A42F7
:101F3800F6D30B4A02E0002342F8043B094B9A42CD
:101F4800F9D3FFF73FFF00F011F8FFF781FE704764
:101F580000000220102000080000002004000020DB
:101F680004000020E4000020FEE7000070B50D4EDC
:101F78000D4CA41BA4100025A54209D10B4E0C4CF6
:101F880000F018F8A41BA4100025A54205D170BDC7
:101F980056F8253098470135EEE756F8253098472A
:101FA8000135F2E70820000808200008082000088A
:101FB8000C200008F8B500BFF8BC08BC9E46704766
:0C1FC800F8B500BFF8BC08BC9E4670478E
:101FD4002E2E5C5372635C7370692E6300000000E4
:101FE400000000000001020304060708092E2E5C0D
:0C1FF4005372635C74696D2E6300000082
:08200000F8E1FF7F0100000080
:04200800AD0100081E
:04200C00890100083E
:042010000024F400B4
:0400000508001F21AF
:00000001FF
